{
  "abi": [
    {
      "inputs": [
        {
          "internalType": "address",
          "name": "_joetroller",
          "type": "address"
        },
        {
          "internalType": "address",
          "name": "_joeRouter",
          "type": "address"
        }
      ],
      "stateMutability": "nonpayable",
      "type": "constructor"
    },
    {
      "anonymous": false,
      "inputs": [
        {
          "indexed": true,
          "internalType": "address",
          "name": "previousOwner",
          "type": "address"
        },
        {
          "indexed": true,
          "internalType": "address",
          "name": "newOwner",
          "type": "address"
        }
      ],
      "name": "OwnershipTransferred",
      "type": "event"
    },
    {
      "inputs": [],
      "name": "joeRouter",
      "outputs": [
        {
          "internalType": "address",
          "name": "",
          "type": "address"
        }
      ],
      "stateMutability": "view",
      "type": "function"
    },
    {
      "inputs": [],
      "name": "joetroller",
      "outputs": [
        {
          "internalType": "address",
          "name": "",
          "type": "address"
        }
      ],
      "stateMutability": "view",
      "type": "function"
    },
    {
      "inputs": [
        {
          "internalType": "address",
          "name": "flashLoanLender",
          "type": "address"
        },
        {
          "internalType": "uint256",
          "name": "repayAmount",
          "type": "uint256"
        },
        {
          "internalType": "address",
          "name": "repayJToken",
          "type": "address"
        },
        {
          "internalType": "address",
          "name": "accountToLiquidate",
          "type": "address"
        },
        {
          "internalType": "address",
          "name": "collateralJToken",
          "type": "address"
        }
      ],
      "name": "liquidateWithFlashLoan",
      "outputs": [],
      "stateMutability": "nonpayable",
      "type": "function"
    },
    {
      "inputs": [
        {
          "internalType": "address",
          "name": "initiator",
          "type": "address"
        },
        {
          "internalType": "address",
          "name": "token",
          "type": "address"
        },
        {
          "internalType": "uint256",
          "name": "amount",
          "type": "uint256"
        },
        {
          "internalType": "uint256",
          "name": "fee",
          "type": "uint256"
        },
        {
          "internalType": "bytes",
          "name": "data",
          "type": "bytes"
        }
      ],
      "name": "onFlashLoan",
      "outputs": [
        {
          "internalType": "bytes32",
          "name": "",
          "type": "bytes32"
        }
      ],
      "stateMutability": "nonpayable",
      "type": "function"
    },
    {
      "inputs": [],
      "name": "owner",
      "outputs": [
        {
          "internalType": "address",
          "name": "",
          "type": "address"
        }
      ],
      "stateMutability": "view",
      "type": "function"
    },
    {
      "inputs": [],
      "name": "renounceOwnership",
      "outputs": [],
      "stateMutability": "nonpayable",
      "type": "function"
    },
    {
      "inputs": [
        {
          "internalType": "address",
          "name": "_joeRouter",
          "type": "address"
        }
      ],
      "name": "set_joeRouter",
      "outputs": [],
      "stateMutability": "nonpayable",
      "type": "function"
    },
    {
      "inputs": [
        {
          "internalType": "address",
          "name": "newOwner",
          "type": "address"
        }
      ],
      "name": "transferOwnership",
      "outputs": [],
      "stateMutability": "nonpayable",
      "type": "function"
    }
  ],
  "bytecode": "60806040523480156200001157600080fd5b5060405162001dba38038062001dba8339810160408190526200003491620000de565b6200003f3362000071565b600180546001600160a01b039384166001600160a01b0319918216179091556002805492909316911617905562000116565b600080546001600160a01b038381166001600160a01b0319831681178455604051919092169283917f8be0079c531659141344cd1fd0a4f28419497f9722a3daafe3b4186f6b6457e09190a35050565b80516001600160a01b0381168114620000d957600080fd5b919050565b60008060408385031215620000f257600080fd5b620000fd83620000c1565b91506200010d60208401620000c1565b90509250929050565b611c9480620001266000396000f3fe608060405234801561001057600080fd5b50600436106100885760003560e01c80636e181d7e1161005b5780636e181d7e14610106578063715018a6146101195780638da5cb5b14610121578063f2fde38b1461013257600080fd5b80630768d41b1461008d57806323e30c8b146100a257806359f571e8146100c85780636330533c146100f3575b600080fd5b6100a061009b366004611598565b610145565b005b6100b56100b0366004611600565b61063d565b6040519081526020015b60405180910390f35b6002546100db906001600160a01b031681565b6040516001600160a01b0390911681526020016100bf565b6001546100db906001600160a01b031681565b6100a06101143660046116aa565b611291565b6100a06112dd565b6000546001600160a01b03166100db565b6100a06101403660046116aa565b611313565b60006040518060400160405280856001600160a01b03168152602001856001600160a01b0316636f307dc36040518163ffffffff1660e01b8152600401602060405180830381865afa15801561019f573d6000803e3d6000fd5b505050506040513d601f19601f820116820180604052508101906101c391906116ce565b6001600160a01b0316815250905060006040518060400160405280846001600160a01b03168152602001846001600160a01b0316636f307dc36040518163ffffffff1660e01b8152600401602060405180830381865afa15801561022b573d6000803e3d6000fd5b505050506040513d601f19601f8201168201806040525081019061024f91906116ce565b6001600160a01b0316815250905060006040518060400160405280896001600160a01b03168152602001896001600160a01b0316636f307dc36040518163ffffffff1660e01b8152600401602060405180830381865afa1580156102b7573d6000803e3d6000fd5b505050506040513d601f19601f820116820180604052508101906102db91906116ce565b6001600160a01b03169052604080516002808252606082018352929350600092909160208301908036833701905050905081602001518160008151811061032457610324611701565b60200260200101906001600160a01b031690816001600160a01b03168152505083602001518160018151811061035c5761035c611701565b6001600160a01b0392831660209182029290920101526002546040516307c0329d60e21b81526000929190911690631f00ca74906103a0908c90869060040161175b565b600060405180830381865afa1580156103bd573d6000803e3d6000fd5b505050506040513d6000823e601f3d908101601f191682016040526103e591908101906117ad565b6000815181106103f7576103f7611701565b60200260200101519050610491604051806040016040528060048152602001631b99595960e21b8152508285602001516001600160a01b03166395d89b416040518163ffffffff1660e01b8152600401600060405180830381865afa158015610464573d6000803e3d6000fd5b505050506040513d6000823e601f3d908101601f1916820160405261048c9190810190611883565b6113ae565b6104f3604051806040016040528060038152602001623337b960e91b8152508a87602001516001600160a01b03166395d89b416040518163ffffffff1660e01b8152600401600060405180830381865afa158015610464573d6000803e3d6000fd5b60008986898760405160200161050c9493929190611917565b60408051601f1981840301815290829052632e7ff4ef60e11b825291506001600160a01b038c1690635cffe9de9061054e90309081908790879060040161199b565b6020604051808303816000875af115801561056d573d6000803e3d6000fd5b505050506040513d601f19601f8201168201806040525081019061059191906119d8565b50604080518082018252601181527072656d61696e696e675f62616c616e636560781b60208083019190915286015191516370a0823160e01b8152306004820152610630926001600160a01b0316906370a08231906024015b602060405180830381865afa158015610607573d6000803e3d6000fd5b505050506040513d601f19601f8201168201806040525081019061062b91906119fa565b6113fa565b5050505050505050505050565b600154604051633d98a1e560e01b81523360048201526000916001600160a01b031690633d98a1e590602401602060405180830381865afa158015610686573d6000803e3d6000fd5b505050506040513d601f19601f820116820180604052508101906106aa91906119d8565b6106fb5760405162461bcd60e51b815260206004820152601860248201527f756e74727573746564206d6573736167652073656e646572000000000000000060448201526064015b60405180910390fd5b6001600160a01b03871630146107635760405162461bcd60e51b815260206004820152602760248201527f466c617368426f72726f7765723a20556e74727573746564206c6f616e20696e60448201526634ba34b0ba37b960c91b60648201526084016106f2565b60408051600280825260608201835260009260208301908036833701905050905060606000808080610797888a018a611a76565b60025460405163095ea7b360e01b815294985092965090945092506001600160a01b03808f169263095ea7b3926107e89216908f906004016001600160a01b03929092168252602082015260400190565b600060405180830381600087803b15801561080257600080fd5b505af1158015610816573d6000803e3d6000fd5b505050508b6001600160a01b031663095ea7b3338c8e6108369190611add565b6040516001600160e01b031960e085901b1681526001600160a01b0390921660048301526024820152604401600060405180830381600087803b15801561087c57600080fd5b505af1158015610890573d6000803e3d6000fd5b505050506020830151835160405163095ea7b360e01b81526001600160a01b0391821660048201526024810187905291169063095ea7b390604401600060405180830381600087803b1580156108e557600080fd5b505af11580156108f9573d6000803e3d6000fd5b505050506109616040518060400160405280600981526020016803137b93937bbb2b2160bd1b8152508c8e6001600160a01b03166395d89b416040518163ffffffff1660e01b8152600401600060405180830381865afa158015610464573d6000803e3d6000fd5b61098f6040518060400160405280600c81526020016b746f206c697175696461746560a01b81525083611443565b610a206040518060400160405280600681526020016503ab9b4b733960d51b81525084602001516001600160a01b03166395d89b416040518163ffffffff1660e01b8152600401600060405180830381865afa1580156109f3573d6000803e3d6000fd5b505050506040513d6000823e601f3d908101601f19168201604052610a1b9190810190611883565b611488565b610a8660405180604001604052806008815260200167039b2b4bd34b733960c51b81525082600001516001600160a01b03166395d89b416040518163ffffffff1660e01b8152600401600060405180830381865afa1580156109f3573d6000803e3d6000fd5b8b86600081518110610a9a57610a9a611701565b60200260200101906001600160a01b031690816001600160a01b031681525050826020015186600181518110610ad257610ad2611701565b6001600160a01b03928316602091820292909201015260025416638803dbee858d8930610b0042600f611add565b6040518663ffffffff1660e01b8152600401610b20959493929190611af5565b6000604051808303816000875af1158015610b3f573d6000803e3d6000fd5b505050506040513d6000823e601f3d908101601f19168201604052610b6791908101906117ad565b50610cb36040518060400160405280601a81526020017f4166746572207377617020726561647920746f2072657061792000000000000081525084600001516001600160a01b0316636f307dc36040518163ffffffff1660e01b8152600401602060405180830381865afa158015610be3573d6000803e3d6000fd5b505050506040513d601f19601f82011682018060405250810190610c0791906116ce565b6040516370a0823160e01b81523060048201526001600160a01b0391909116906370a0823190602401602060405180830381865afa158015610c4d573d6000803e3d6000fd5b505050506040513d601f19601f82011682018060405250810190610c7191906119fa565b85602001516001600160a01b03166395d89b416040518163ffffffff1660e01b8152600401600060405180830381865afa158015610464573d6000803e3d6000fd5b82518151604051637af1e23160e11b81526001600160a01b038581166004830152602482018890529182166044820152600092919091169063f5e3c462906064016020604051808303816000875af1158015610d13573d6000803e3d6000fd5b505050506040513d601f19601f82011682018060405250810190610d3791906119fa565b9050610d666040518060400160405280600b81526020016a72657475726e20636f646560a81b815250826113fa565b604080518082018252600d81526c39b2b4bd32b22fa52a37b5b2b760991b6020820152835191516370a0823160e01b8152306004820152610db9926001600160a01b0316906370a08231906024016105ea565b8015610e075760405162461bcd60e51b815260206004820181905260248201527f6261642072657475726e20636f64652066726f6d206c69717569646174696f6e60448201526064016106f2565b5080516040516370a0823160e01b81523060048201526000916001600160a01b03169063db006a759082906370a0823190602401602060405180830381865afa158015610e58573d6000803e3d6000fd5b505050506040513d601f19601f82011682018060405250810190610e7c91906119fa565b6040518263ffffffff1660e01b8152600401610e9a91815260200190565b6020604051808303816000875af1158015610eb9573d6000803e3d6000fd5b505050506040513d601f19601f82011682018060405250810190610edd91906119fa565b90508015610f2d5760405162461bcd60e51b815260206004820152601b60248201527f6261642072657475726e20636f64652066726f6d2072656465656d000000000060448201526064016106f2565b60208201516040516370a0823160e01b81523060048201526000916001600160a01b0316906370a0823190602401602060405180830381865afa158015610f78573d6000803e3d6000fd5b505050506040513d601f19601f82011682018060405250810190610f9c91906119fa565b9050610fc8604051806040016040528060088152602001671c995919595b595960c21b815250826113fa565b826020015188600081518110610fe057610fe0611701565b60200260200101906001600160a01b031690816001600160a01b0316815250508d8860018151811061101457611014611701565b6001600160a01b03928316602091820292909201015260025460405163d06ca61f60e01b815291169063d06ca61f906110539084908c9060040161175b565b600060405180830381865afa158015611070573d6000803e3d6000fd5b505050506040513d6000823e601f3d908101601f1916820160405261109891908101906117ad565b965060005b87518110156110da576110c88882815181106110bb576110bb611701565b60200260200101516114cd565b806110d281611b31565b91505061109d565b5061112f604051806040016040528060038152602001621bdd5d60ea1b8152506103fa8960018151811061111057611110611701565b60200260200101516103cc6111259190611b4c565b61062b9190611b6b565b602083015160025460405163095ea7b360e01b81526001600160a01b0391821660048201526024810184905291169063095ea7b390604401600060405180830381600087803b15801561118157600080fd5b505af1158015611195573d6000803e3d6000fd5b505060025489516001600160a01b0390911692506338ed1739915083906103fa908b9060019081106111c9576111c9611701565b60200260200101516103cc6111de9190611b4c565b6111e89190611b6b565b8b306111f542600f611add565b6040518663ffffffff1660e01b8152600401611215959493929190611af5565b6000604051808303816000875af1158015611234573d6000803e3d6000fd5b505050506040513d6000823e601f3d908101601f1916820160405261125c91908101906117ad565b507f7968ba28153757de2da7bce4c2ba9ebaf94445061f3050de1b0de5c34bb7d5d89f9e505050505050505050505050505050565b6000546001600160a01b031633146112bb5760405162461bcd60e51b81526004016106f290611b8d565b600280546001600160a01b0319166001600160a01b0392909216919091179055565b6000546001600160a01b031633146113075760405162461bcd60e51b81526004016106f290611b8d565b6113116000611512565b565b6000546001600160a01b0316331461133d5760405162461bcd60e51b81526004016106f290611b8d565b6001600160a01b0381166113a25760405162461bcd60e51b815260206004820152602660248201527f4f776e61626c653a206e6577206f776e657220697320746865207a65726f206160448201526564647265737360d01b60648201526084016106f2565b6113ab81611512565b50565b6113f58383836040516024016113c693929190611bc2565b60408051601f198184030181529190526020810180516001600160e01b031663a3f5c73960e01b179052611562565b505050565b61143f8282604051602401611410929190611bed565b60408051601f198184030181529190526020810180516001600160e01b03166309710a9d60e41b179052611562565b5050565b61143f8282604051602401611459929190611c0f565b60408051601f198184030181529190526020810180516001600160e01b031663319af33360e01b179052611562565b61143f828260405160240161149e929190611c39565b60408051601f198184030181529190526020810180516001600160e01b0316634b5c427760e01b179052611562565b6113ab816040516024016114e391815260200190565b60408051601f198184030181529190526020810180516001600160e01b031663f5b1bba960e01b179052611562565b600080546001600160a01b038381166001600160a01b0319831681178455604051919092169283917f8be0079c531659141344cd1fd0a4f28419497f9722a3daafe3b4186f6b6457e09190a35050565b80516a636f6e736f6c652e6c6f67602083016000808483855afa5050505050565b6001600160a01b03811681146113ab57600080fd5b600080600080600060a086880312156115b057600080fd5b85356115bb81611583565b94506020860135935060408601356115d281611583565b925060608601356115e281611583565b915060808601356115f281611583565b809150509295509295909350565b60008060008060008060a0878903121561161957600080fd5b863561162481611583565b9550602087013561163481611583565b94506040870135935060608701359250608087013567ffffffffffffffff8082111561165f57600080fd5b818901915089601f83011261167357600080fd5b81358181111561168257600080fd5b8a602082850101111561169457600080fd5b6020830194508093505050509295509295509295565b6000602082840312156116bc57600080fd5b81356116c781611583565b9392505050565b6000602082840312156116e057600080fd5b81516116c781611583565b634e487b7160e01b600052604160045260246000fd5b634e487b7160e01b600052603260045260246000fd5b600081518084526020808501945080840160005b838110156117505781516001600160a01b03168752958201959082019060010161172b565b509495945050505050565b8281526040602082015260006117746040830184611717565b949350505050565b604051601f8201601f1916810167ffffffffffffffff811182821017156117a5576117a56116eb565b604052919050565b600060208083850312156117c057600080fd5b825167ffffffffffffffff808211156117d857600080fd5b818501915085601f8301126117ec57600080fd5b8151818111156117fe576117fe6116eb565b8060051b915061180f84830161177c565b818152918301840191848101908884111561182957600080fd5b938501935b838510156118475784518252938501939085019061182e565b98975050505050505050565b60005b8381101561186e578181015183820152602001611856565b8381111561187d576000848401525b50505050565b60006020828403121561189557600080fd5b815167ffffffffffffffff808211156118ad57600080fd5b818401915084601f8301126118c157600080fd5b8151818111156118d3576118d36116eb565b6118e6601f8201601f191660200161177c565b91508082528560208285010111156118fd57600080fd5b61190e816020840160208601611853565b50949350505050565b84815260c08101611941602083018680516001600160a01b03908116835260209182015116910152565b6001600160a01b03848116606084015283518116608084015260208401511660a08301525b95945050505050565b60008151808452611987816020860160208601611853565b601f01601f19169290920160200192915050565b6001600160a01b03858116825284166020820152604081018390526080606082018190526000906119ce9083018461196f565b9695505050505050565b6000602082840312156119ea57600080fd5b815180151581146116c757600080fd5b600060208284031215611a0c57600080fd5b5051919050565b600060408284031215611a2557600080fd5b6040516040810181811067ffffffffffffffff82111715611a4857611a486116eb565b6040529050808235611a5981611583565b81526020830135611a6981611583565b6020919091015292915050565b60008060008060c08587031215611a8c57600080fd5b84359350611a9d8660208701611a13565b92506060850135611aad81611583565b9150611abc8660808701611a13565b905092959194509250565b634e487b7160e01b600052601160045260246000fd5b60008219821115611af057611af0611ac7565b500190565b85815284602082015260a060408201526000611b1460a0830186611717565b6001600160a01b0394909416606083015250608001529392505050565b6000600019821415611b4557611b45611ac7565b5060010190565b6000816000190483118215151615611b6657611b66611ac7565b500290565b600082611b8857634e487b7160e01b600052601260045260246000fd5b500490565b6020808252818101527f4f776e61626c653a2063616c6c6572206973206e6f7420746865206f776e6572604082015260600190565b606081526000611bd5606083018661196f565b84602084015282810360408401526119ce818561196f565b604081526000611c00604083018561196f565b90508260208301529392505050565b604081526000611c22604083018561196f565b905060018060a01b03831660208301529392505050565b604081526000611c4c604083018561196f565b8281036020840152611966818561196f56fea2646970667358221220c27a202af38d1537608ebfb3fefba62d25ad628691b04358ef2d867730349c8c64736f6c634300080c0033",
  "bytecodeSha1": "5d859ede4d1c06da64aad18a2b94f1b01cfc4179",
  "compiler": {
    "evm_version": "istanbul",
    "optimizer": {
      "enabled": true,
      "runs": 200
    },
    "version": "0.8.12+commit.f00d7308"
  },
  "contractName": "Liquidatooor",
  "language": "Solidity",
  "natspec": {
    "kind": "dev",
    "methods": {
      "onFlashLoan(address,address,uint256,uint256,bytes)": {
        "details": "Receive a flash loan.",
        "params": {
          "amount": "The amount of tokens lent.",
          "data": "Arbitrary data structure, intended to contain user-defined parameters.",
          "fee": "The additional amount of tokens to repay.",
          "initiator": "The initiator of the loan.",
          "token": "The loan currency."
        },
        "returns": {
          "_0": "The keccak256 hash of \"ERC3156FlashBorrower.onFlashLoan\""
        }
      },
      "owner()": {
        "details": "Returns the address of the current owner."
      },
      "renounceOwnership()": {
        "details": "Leaves the contract without owner. It will not be possible to call `onlyOwner` functions anymore. Can only be called by the current owner. NOTE: Renouncing ownership will leave the contract without an owner, thereby removing any functionality that is only available to the owner."
      },
      "transferOwnership(address)": {
        "details": "Transfers ownership of the contract to a new account (`newOwner`). Can only be called by the current owner."
      }
    },
    "version": 1
  },
  "opcodes": "PUSH1 0x80 PUSH1 0x40 MSTORE CALLVALUE DUP1 ISZERO PUSH2 0x10 JUMPI PUSH1 0x0 DUP1 REVERT JUMPDEST POP PUSH1 0x4 CALLDATASIZE LT PUSH2 0x88 JUMPI PUSH1 0x0 CALLDATALOAD PUSH1 0xE0 SHR DUP1 PUSH4 0x6E181D7E GT PUSH2 0x5B JUMPI DUP1 PUSH4 0x6E181D7E EQ PUSH2 0x106 JUMPI DUP1 PUSH4 0x715018A6 EQ PUSH2 0x119 JUMPI DUP1 PUSH4 0x8DA5CB5B EQ PUSH2 0x121 JUMPI DUP1 PUSH4 0xF2FDE38B EQ PUSH2 0x132 JUMPI PUSH1 0x0 DUP1 REVERT JUMPDEST DUP1 PUSH4 0x768D41B EQ PUSH2 0x8D JUMPI DUP1 PUSH4 0x23E30C8B EQ PUSH2 0xA2 JUMPI DUP1 PUSH4 0x59F571E8 EQ PUSH2 0xC8 JUMPI DUP1 PUSH4 0x6330533C EQ PUSH2 0xF3 JUMPI JUMPDEST PUSH1 0x0 DUP1 REVERT JUMPDEST PUSH2 0xA0 PUSH2 0x9B CALLDATASIZE PUSH1 0x4 PUSH2 0x1598 JUMP JUMPDEST PUSH2 0x145 JUMP JUMPDEST STOP JUMPDEST PUSH2 0xB5 PUSH2 0xB0 CALLDATASIZE PUSH1 0x4 PUSH2 0x1600 JUMP JUMPDEST PUSH2 0x63D JUMP JUMPDEST PUSH1 0x40 MLOAD SWAP1 DUP2 MSTORE PUSH1 0x20 ADD JUMPDEST PUSH1 0x40 MLOAD DUP1 SWAP2 SUB SWAP1 RETURN JUMPDEST PUSH1 0x2 SLOAD PUSH2 0xDB SWAP1 PUSH1 0x1 PUSH1 0x1 PUSH1 0xA0 SHL SUB AND DUP2 JUMP JUMPDEST PUSH1 0x40 MLOAD PUSH1 0x1 PUSH1 0x1 PUSH1 0xA0 SHL SUB SWAP1 SWAP2 AND DUP2 MSTORE PUSH1 0x20 ADD PUSH2 0xBF JUMP JUMPDEST PUSH1 0x1 SLOAD PUSH2 0xDB SWAP1 PUSH1 0x1 PUSH1 0x1 PUSH1 0xA0 SHL SUB AND DUP2 JUMP JUMPDEST PUSH2 0xA0 PUSH2 0x114 CALLDATASIZE PUSH1 0x4 PUSH2 0x16AA JUMP JUMPDEST PUSH2 0x1291 JUMP JUMPDEST PUSH2 0xA0 PUSH2 0x12DD JUMP JUMPDEST PUSH1 0x0 SLOAD PUSH1 0x1 PUSH1 0x1 PUSH1 0xA0 SHL SUB AND PUSH2 0xDB JUMP JUMPDEST PUSH2 0xA0 PUSH2 0x140 CALLDATASIZE PUSH1 0x4 PUSH2 0x16AA JUMP JUMPDEST PUSH2 0x1313 JUMP JUMPDEST PUSH1 0x0 PUSH1 0x40 MLOAD DUP1 PUSH1 0x40 ADD PUSH1 0x40 MSTORE DUP1 DUP6 PUSH1 0x1 PUSH1 0x1 PUSH1 0xA0 SHL SUB AND DUP2 MSTORE PUSH1 0x20 ADD DUP6 PUSH1 0x1 PUSH1 0x1 PUSH1 0xA0 SHL SUB AND PUSH4 0x6F307DC3 PUSH1 0x40 MLOAD DUP2 PUSH4 0xFFFFFFFF AND PUSH1 0xE0 SHL DUP2 MSTORE PUSH1 0x4 ADD PUSH1 0x20 PUSH1 0x40 MLOAD DUP1 DUP4 SUB DUP2 DUP7 GAS STATICCALL ISZERO DUP1 ISZERO PUSH2 0x19F JUMPI RETURNDATASIZE PUSH1 0x0 DUP1 RETURNDATACOPY RETURNDATASIZE PUSH1 0x0 REVERT JUMPDEST POP POP POP POP PUSH1 0x40 MLOAD RETURNDATASIZE PUSH1 0x1F NOT PUSH1 0x1F DUP3 ADD AND DUP3 ADD DUP1 PUSH1 0x40 MSTORE POP DUP2 ADD SWAP1 PUSH2 0x1C3 SWAP2 SWAP1 PUSH2 0x16CE JUMP JUMPDEST PUSH1 0x1 PUSH1 0x1 PUSH1 0xA0 SHL SUB AND DUP2 MSTORE POP SWAP1 POP PUSH1 0x0 PUSH1 0x40 MLOAD DUP1 PUSH1 0x40 ADD PUSH1 0x40 MSTORE DUP1 DUP5 PUSH1 0x1 PUSH1 0x1 PUSH1 0xA0 SHL SUB AND DUP2 MSTORE PUSH1 0x20 ADD DUP5 PUSH1 0x1 PUSH1 0x1 PUSH1 0xA0 SHL SUB AND PUSH4 0x6F307DC3 PUSH1 0x40 MLOAD DUP2 PUSH4 0xFFFFFFFF AND PUSH1 0xE0 SHL DUP2 MSTORE PUSH1 0x4 ADD PUSH1 0x20 PUSH1 0x40 MLOAD DUP1 DUP4 SUB DUP2 DUP7 GAS STATICCALL ISZERO DUP1 ISZERO PUSH2 0x22B JUMPI RETURNDATASIZE PUSH1 0x0 DUP1 RETURNDATACOPY RETURNDATASIZE PUSH1 0x0 REVERT JUMPDEST POP POP POP POP PUSH1 0x40 MLOAD RETURNDATASIZE PUSH1 0x1F NOT PUSH1 0x1F DUP3 ADD AND DUP3 ADD DUP1 PUSH1 0x40 MSTORE POP DUP2 ADD SWAP1 PUSH2 0x24F SWAP2 SWAP1 PUSH2 0x16CE JUMP JUMPDEST PUSH1 0x1 PUSH1 0x1 PUSH1 0xA0 SHL SUB AND DUP2 MSTORE POP SWAP1 POP PUSH1 0x0 PUSH1 0x40 MLOAD DUP1 PUSH1 0x40 ADD PUSH1 0x40 MSTORE DUP1 DUP10 PUSH1 0x1 PUSH1 0x1 PUSH1 0xA0 SHL SUB AND DUP2 MSTORE PUSH1 0x20 ADD DUP10 PUSH1 0x1 PUSH1 0x1 PUSH1 0xA0 SHL SUB AND PUSH4 0x6F307DC3 PUSH1 0x40 MLOAD DUP2 PUSH4 0xFFFFFFFF AND PUSH1 0xE0 SHL DUP2 MSTORE PUSH1 0x4 ADD PUSH1 0x20 PUSH1 0x40 MLOAD DUP1 DUP4 SUB DUP2 DUP7 GAS STATICCALL ISZERO DUP1 ISZERO PUSH2 0x2B7 JUMPI RETURNDATASIZE PUSH1 0x0 DUP1 RETURNDATACOPY RETURNDATASIZE PUSH1 0x0 REVERT JUMPDEST POP POP POP POP PUSH1 0x40 MLOAD RETURNDATASIZE PUSH1 0x1F NOT PUSH1 0x1F DUP3 ADD AND DUP3 ADD DUP1 PUSH1 0x40 MSTORE POP DUP2 ADD SWAP1 PUSH2 0x2DB SWAP2 SWAP1 PUSH2 0x16CE JUMP JUMPDEST PUSH1 0x1 PUSH1 0x1 PUSH1 0xA0 SHL SUB AND SWAP1 MSTORE PUSH1 0x40 DUP1 MLOAD PUSH1 0x2 DUP1 DUP3 MSTORE PUSH1 0x60 DUP3 ADD DUP4 MSTORE SWAP3 SWAP4 POP PUSH1 0x0 SWAP3 SWAP1 SWAP2 PUSH1 0x20 DUP4 ADD SWAP1 DUP1 CALLDATASIZE DUP4 CALLDATACOPY ADD SWAP1 POP POP SWAP1 POP DUP2 PUSH1 0x20 ADD MLOAD DUP2 PUSH1 0x0 DUP2 MLOAD DUP2 LT PUSH2 0x324 JUMPI PUSH2 0x324 PUSH2 0x1701 JUMP JUMPDEST PUSH1 0x20 MUL PUSH1 0x20 ADD ADD SWAP1 PUSH1 0x1 PUSH1 0x1 PUSH1 0xA0 SHL SUB AND SWAP1 DUP2 PUSH1 0x1 PUSH1 0x1 PUSH1 0xA0 SHL SUB AND DUP2 MSTORE POP POP DUP4 PUSH1 0x20 ADD MLOAD DUP2 PUSH1 0x1 DUP2 MLOAD DUP2 LT PUSH2 0x35C JUMPI PUSH2 0x35C PUSH2 0x1701 JUMP JUMPDEST PUSH1 0x1 PUSH1 0x1 PUSH1 0xA0 SHL SUB SWAP3 DUP4 AND PUSH1 0x20 SWAP2 DUP3 MUL SWAP3 SWAP1 SWAP3 ADD ADD MSTORE PUSH1 0x2 SLOAD PUSH1 0x40 MLOAD PUSH4 0x7C0329D PUSH1 0xE2 SHL DUP2 MSTORE PUSH1 0x0 SWAP3 SWAP2 SWAP1 SWAP2 AND SWAP1 PUSH4 0x1F00CA74 SWAP1 PUSH2 0x3A0 SWAP1 DUP13 SWAP1 DUP7 SWAP1 PUSH1 0x4 ADD PUSH2 0x175B JUMP JUMPDEST PUSH1 0x0 PUSH1 0x40 MLOAD DUP1 DUP4 SUB DUP2 DUP7 GAS STATICCALL ISZERO DUP1 ISZERO PUSH2 0x3BD JUMPI RETURNDATASIZE PUSH1 0x0 DUP1 RETURNDATACOPY RETURNDATASIZE PUSH1 0x0 REVERT JUMPDEST POP POP POP POP PUSH1 0x40 MLOAD RETURNDATASIZE PUSH1 0x0 DUP3 RETURNDATACOPY PUSH1 0x1F RETURNDATASIZE SWAP1 DUP2 ADD PUSH1 0x1F NOT AND DUP3 ADD PUSH1 0x40 MSTORE PUSH2 0x3E5 SWAP2 SWAP1 DUP2 ADD SWAP1 PUSH2 0x17AD JUMP JUMPDEST PUSH1 0x0 DUP2 MLOAD DUP2 LT PUSH2 0x3F7 JUMPI PUSH2 0x3F7 PUSH2 0x1701 JUMP JUMPDEST PUSH1 0x20 MUL PUSH1 0x20 ADD ADD MLOAD SWAP1 POP PUSH2 0x491 PUSH1 0x40 MLOAD DUP1 PUSH1 0x40 ADD PUSH1 0x40 MSTORE DUP1 PUSH1 0x4 DUP2 MSTORE PUSH1 0x20 ADD PUSH4 0x1B995959 PUSH1 0xE2 SHL DUP2 MSTORE POP DUP3 DUP6 PUSH1 0x20 ADD MLOAD PUSH1 0x1 PUSH1 0x1 PUSH1 0xA0 SHL SUB AND PUSH4 0x95D89B41 PUSH1 0x40 MLOAD DUP2 PUSH4 0xFFFFFFFF AND PUSH1 0xE0 SHL DUP2 MSTORE PUSH1 0x4 ADD PUSH1 0x0 PUSH1 0x40 MLOAD DUP1 DUP4 SUB DUP2 DUP7 GAS STATICCALL ISZERO DUP1 ISZERO PUSH2 0x464 JUMPI RETURNDATASIZE PUSH1 0x0 DUP1 RETURNDATACOPY RETURNDATASIZE PUSH1 0x0 REVERT JUMPDEST POP POP POP POP PUSH1 0x40 MLOAD RETURNDATASIZE PUSH1 0x0 DUP3 RETURNDATACOPY PUSH1 0x1F RETURNDATASIZE SWAP1 DUP2 ADD PUSH1 0x1F NOT AND DUP3 ADD PUSH1 0x40 MSTORE PUSH2 0x48C SWAP2 SWAP1 DUP2 ADD SWAP1 PUSH2 0x1883 JUMP JUMPDEST PUSH2 0x13AE JUMP JUMPDEST PUSH2 0x4F3 PUSH1 0x40 MLOAD DUP1 PUSH1 0x40 ADD PUSH1 0x40 MSTORE DUP1 PUSH1 0x3 DUP2 MSTORE PUSH1 0x20 ADD PUSH3 0x3337B9 PUSH1 0xE9 SHL DUP2 MSTORE POP DUP11 DUP8 PUSH1 0x20 ADD MLOAD PUSH1 0x1 PUSH1 0x1 PUSH1 0xA0 SHL SUB AND PUSH4 0x95D89B41 PUSH1 0x40 MLOAD DUP2 PUSH4 0xFFFFFFFF AND PUSH1 0xE0 SHL DUP2 MSTORE PUSH1 0x4 ADD PUSH1 0x0 PUSH1 0x40 MLOAD DUP1 DUP4 SUB DUP2 DUP7 GAS STATICCALL ISZERO DUP1 ISZERO PUSH2 0x464 JUMPI RETURNDATASIZE PUSH1 0x0 DUP1 RETURNDATACOPY RETURNDATASIZE PUSH1 0x0 REVERT JUMPDEST PUSH1 0x0 DUP10 DUP7 DUP10 DUP8 PUSH1 0x40 MLOAD PUSH1 0x20 ADD PUSH2 0x50C SWAP5 SWAP4 SWAP3 SWAP2 SWAP1 PUSH2 0x1917 JUMP JUMPDEST PUSH1 0x40 DUP1 MLOAD PUSH1 0x1F NOT DUP2 DUP5 SUB ADD DUP2 MSTORE SWAP1 DUP3 SWAP1 MSTORE PUSH4 0x2E7FF4EF PUSH1 0xE1 SHL DUP3 MSTORE SWAP2 POP PUSH1 0x1 PUSH1 0x1 PUSH1 0xA0 SHL SUB DUP13 AND SWAP1 PUSH4 0x5CFFE9DE SWAP1 PUSH2 0x54E SWAP1 ADDRESS SWAP1 DUP2 SWAP1 DUP8 SWAP1 DUP8 SWAP1 PUSH1 0x4 ADD PUSH2 0x199B JUMP JUMPDEST PUSH1 0x20 PUSH1 0x40 MLOAD DUP1 DUP4 SUB DUP2 PUSH1 0x0 DUP8 GAS CALL ISZERO DUP1 ISZERO PUSH2 0x56D JUMPI RETURNDATASIZE PUSH1 0x0 DUP1 RETURNDATACOPY RETURNDATASIZE PUSH1 0x0 REVERT JUMPDEST POP POP POP POP PUSH1 0x40 MLOAD RETURNDATASIZE PUSH1 0x1F NOT PUSH1 0x1F DUP3 ADD AND DUP3 ADD DUP1 PUSH1 0x40 MSTORE POP DUP2 ADD SWAP1 PUSH2 0x591 SWAP2 SWAP1 PUSH2 0x19D8 JUMP JUMPDEST POP PUSH1 0x40 DUP1 MLOAD DUP1 DUP3 ADD DUP3 MSTORE PUSH1 0x11 DUP2 MSTORE PUSH17 0x72656D61696E696E675F62616C616E6365 PUSH1 0x78 SHL PUSH1 0x20 DUP1 DUP4 ADD SWAP2 SWAP1 SWAP2 MSTORE DUP7 ADD MLOAD SWAP2 MLOAD PUSH4 0x70A08231 PUSH1 0xE0 SHL DUP2 MSTORE ADDRESS PUSH1 0x4 DUP3 ADD MSTORE PUSH2 0x630 SWAP3 PUSH1 0x1 PUSH1 0x1 PUSH1 0xA0 SHL SUB AND SWAP1 PUSH4 0x70A08231 SWAP1 PUSH1 0x24 ADD JUMPDEST PUSH1 0x20 PUSH1 0x40 MLOAD DUP1 DUP4 SUB DUP2 DUP7 GAS STATICCALL ISZERO DUP1 ISZERO PUSH2 0x607 JUMPI RETURNDATASIZE PUSH1 0x0 DUP1 RETURNDATACOPY RETURNDATASIZE PUSH1 0x0 REVERT JUMPDEST POP POP POP POP PUSH1 0x40 MLOAD RETURNDATASIZE PUSH1 0x1F NOT PUSH1 0x1F DUP3 ADD AND DUP3 ADD DUP1 PUSH1 0x40 MSTORE POP DUP2 ADD SWAP1 PUSH2 0x62B SWAP2 SWAP1 PUSH2 0x19FA JUMP JUMPDEST PUSH2 0x13FA JUMP JUMPDEST POP POP POP POP POP POP POP POP POP POP POP JUMP JUMPDEST PUSH1 0x1 SLOAD PUSH1 0x40 MLOAD PUSH4 0x3D98A1E5 PUSH1 0xE0 SHL DUP2 MSTORE CALLER PUSH1 0x4 DUP3 ADD MSTORE PUSH1 0x0 SWAP2 PUSH1 0x1 PUSH1 0x1 PUSH1 0xA0 SHL SUB AND SWAP1 PUSH4 0x3D98A1E5 SWAP1 PUSH1 0x24 ADD PUSH1 0x20 PUSH1 0x40 MLOAD DUP1 DUP4 SUB DUP2 DUP7 GAS STATICCALL ISZERO DUP1 ISZERO PUSH2 0x686 JUMPI RETURNDATASIZE PUSH1 0x0 DUP1 RETURNDATACOPY RETURNDATASIZE PUSH1 0x0 REVERT JUMPDEST POP POP POP POP PUSH1 0x40 MLOAD RETURNDATASIZE PUSH1 0x1F NOT PUSH1 0x1F DUP3 ADD AND DUP3 ADD DUP1 PUSH1 0x40 MSTORE POP DUP2 ADD SWAP1 PUSH2 0x6AA SWAP2 SWAP1 PUSH2 0x19D8 JUMP JUMPDEST PUSH2 0x6FB JUMPI PUSH1 0x40 MLOAD PUSH3 0x461BCD PUSH1 0xE5 SHL DUP2 MSTORE PUSH1 0x20 PUSH1 0x4 DUP3 ADD MSTORE PUSH1 0x18 PUSH1 0x24 DUP3 ADD MSTORE PUSH32 0x756E74727573746564206D6573736167652073656E6465720000000000000000 PUSH1 0x44 DUP3 ADD MSTORE PUSH1 0x64 ADD JUMPDEST PUSH1 0x40 MLOAD DUP1 SWAP2 SUB SWAP1 REVERT JUMPDEST PUSH1 0x1 PUSH1 0x1 PUSH1 0xA0 SHL SUB DUP8 AND ADDRESS EQ PUSH2 0x763 JUMPI PUSH1 0x40 MLOAD PUSH3 0x461BCD PUSH1 0xE5 SHL DUP2 MSTORE PUSH1 0x20 PUSH1 0x4 DUP3 ADD MSTORE PUSH1 0x27 PUSH1 0x24 DUP3 ADD MSTORE PUSH32 0x466C617368426F72726F7765723A20556E74727573746564206C6F616E20696E PUSH1 0x44 DUP3 ADD MSTORE PUSH7 0x34BA34B0BA37B9 PUSH1 0xC9 SHL PUSH1 0x64 DUP3 ADD MSTORE PUSH1 0x84 ADD PUSH2 0x6F2 JUMP JUMPDEST PUSH1 0x40 DUP1 MLOAD PUSH1 0x2 DUP1 DUP3 MSTORE PUSH1 0x60 DUP3 ADD DUP4 MSTORE PUSH1 0x0 SWAP3 PUSH1 0x20 DUP4 ADD SWAP1 DUP1 CALLDATASIZE DUP4 CALLDATACOPY ADD SWAP1 POP POP SWAP1 POP PUSH1 0x60 PUSH1 0x0 DUP1 DUP1 DUP1 PUSH2 0x797 DUP9 DUP11 ADD DUP11 PUSH2 0x1A76 JUMP JUMPDEST PUSH1 0x2 SLOAD PUSH1 0x40 MLOAD PUSH4 0x95EA7B3 PUSH1 0xE0 SHL DUP2 MSTORE SWAP5 SWAP9 POP SWAP3 SWAP7 POP SWAP1 SWAP5 POP SWAP3 POP PUSH1 0x1 PUSH1 0x1 PUSH1 0xA0 SHL SUB DUP1 DUP16 AND SWAP3 PUSH4 0x95EA7B3 SWAP3 PUSH2 0x7E8 SWAP3 AND SWAP1 DUP16 SWAP1 PUSH1 0x4 ADD PUSH1 0x1 PUSH1 0x1 PUSH1 0xA0 SHL SUB SWAP3 SWAP1 SWAP3 AND DUP3 MSTORE PUSH1 0x20 DUP3 ADD MSTORE PUSH1 0x40 ADD SWAP1 JUMP JUMPDEST PUSH1 0x0 PUSH1 0x40 MLOAD DUP1 DUP4 SUB DUP2 PUSH1 0x0 DUP8 DUP1 EXTCODESIZE ISZERO DUP1 ISZERO PUSH2 0x802 JUMPI PUSH1 0x0 DUP1 REVERT JUMPDEST POP GAS CALL ISZERO DUP1 ISZERO PUSH2 0x816 JUMPI RETURNDATASIZE PUSH1 0x0 DUP1 RETURNDATACOPY RETURNDATASIZE PUSH1 0x0 REVERT JUMPDEST POP POP POP POP DUP12 PUSH1 0x1 PUSH1 0x1 PUSH1 0xA0 SHL SUB AND PUSH4 0x95EA7B3 CALLER DUP13 DUP15 PUSH2 0x836 SWAP2 SWAP1 PUSH2 0x1ADD JUMP JUMPDEST PUSH1 0x40 MLOAD PUSH1 0x1 PUSH1 0x1 PUSH1 0xE0 SHL SUB NOT PUSH1 0xE0 DUP6 SWAP1 SHL AND DUP2 MSTORE PUSH1 0x1 PUSH1 0x1 PUSH1 0xA0 SHL SUB SWAP1 SWAP3 AND PUSH1 0x4 DUP4 ADD MSTORE PUSH1 0x24 DUP3 ADD MSTORE PUSH1 0x44 ADD PUSH1 0x0 PUSH1 0x40 MLOAD DUP1 DUP4 SUB DUP2 PUSH1 0x0 DUP8 DUP1 EXTCODESIZE ISZERO DUP1 ISZERO PUSH2 0x87C JUMPI PUSH1 0x0 DUP1 REVERT JUMPDEST POP GAS CALL ISZERO DUP1 ISZERO PUSH2 0x890 JUMPI RETURNDATASIZE PUSH1 0x0 DUP1 RETURNDATACOPY RETURNDATASIZE PUSH1 0x0 REVERT JUMPDEST POP POP POP POP PUSH1 0x20 DUP4 ADD MLOAD DUP4 MLOAD PUSH1 0x40 MLOAD PUSH4 0x95EA7B3 PUSH1 0xE0 SHL DUP2 MSTORE PUSH1 0x1 PUSH1 0x1 PUSH1 0xA0 SHL SUB SWAP2 DUP3 AND PUSH1 0x4 DUP3 ADD MSTORE PUSH1 0x24 DUP2 ADD DUP8 SWAP1 MSTORE SWAP2 AND SWAP1 PUSH4 0x95EA7B3 SWAP1 PUSH1 0x44 ADD PUSH1 0x0 PUSH1 0x40 MLOAD DUP1 DUP4 SUB DUP2 PUSH1 0x0 DUP8 DUP1 EXTCODESIZE ISZERO DUP1 ISZERO PUSH2 0x8E5 JUMPI PUSH1 0x0 DUP1 REVERT JUMPDEST POP GAS CALL ISZERO DUP1 ISZERO PUSH2 0x8F9 JUMPI RETURNDATASIZE PUSH1 0x0 DUP1 RETURNDATACOPY RETURNDATASIZE PUSH1 0x0 REVERT JUMPDEST POP POP POP POP PUSH2 0x961 PUSH1 0x40 MLOAD DUP1 PUSH1 0x40 ADD PUSH1 0x40 MSTORE DUP1 PUSH1 0x9 DUP2 MSTORE PUSH1 0x20 ADD PUSH9 0x3137B93937BBB2B21 PUSH1 0xBD SHL DUP2 MSTORE POP DUP13 DUP15 PUSH1 0x1 PUSH1 0x1 PUSH1 0xA0 SHL SUB AND PUSH4 0x95D89B41 PUSH1 0x40 MLOAD DUP2 PUSH4 0xFFFFFFFF AND PUSH1 0xE0 SHL DUP2 MSTORE PUSH1 0x4 ADD PUSH1 0x0 PUSH1 0x40 MLOAD DUP1 DUP4 SUB DUP2 DUP7 GAS STATICCALL ISZERO DUP1 ISZERO PUSH2 0x464 JUMPI RETURNDATASIZE PUSH1 0x0 DUP1 RETURNDATACOPY RETURNDATASIZE PUSH1 0x0 REVERT JUMPDEST PUSH2 0x98F PUSH1 0x40 MLOAD DUP1 PUSH1 0x40 ADD PUSH1 0x40 MSTORE DUP1 PUSH1 0xC DUP2 MSTORE PUSH1 0x20 ADD PUSH12 0x746F206C6971756964617465 PUSH1 0xA0 SHL DUP2 MSTORE POP DUP4 PUSH2 0x1443 JUMP JUMPDEST PUSH2 0xA20 PUSH1 0x40 MLOAD DUP1 PUSH1 0x40 ADD PUSH1 0x40 MSTORE DUP1 PUSH1 0x6 DUP2 MSTORE PUSH1 0x20 ADD PUSH6 0x3AB9B4B7339 PUSH1 0xD5 SHL DUP2 MSTORE POP DUP5 PUSH1 0x20 ADD MLOAD PUSH1 0x1 PUSH1 0x1 PUSH1 0xA0 SHL SUB AND PUSH4 0x95D89B41 PUSH1 0x40 MLOAD DUP2 PUSH4 0xFFFFFFFF AND PUSH1 0xE0 SHL DUP2 MSTORE PUSH1 0x4 ADD PUSH1 0x0 PUSH1 0x40 MLOAD DUP1 DUP4 SUB DUP2 DUP7 GAS STATICCALL ISZERO DUP1 ISZERO PUSH2 0x9F3 JUMPI RETURNDATASIZE PUSH1 0x0 DUP1 RETURNDATACOPY RETURNDATASIZE PUSH1 0x0 REVERT JUMPDEST POP POP POP POP PUSH1 0x40 MLOAD RETURNDATASIZE PUSH1 0x0 DUP3 RETURNDATACOPY PUSH1 0x1F RETURNDATASIZE SWAP1 DUP2 ADD PUSH1 0x1F NOT AND DUP3 ADD PUSH1 0x40 MSTORE PUSH2 0xA1B SWAP2 SWAP1 DUP2 ADD SWAP1 PUSH2 0x1883 JUMP JUMPDEST PUSH2 0x1488 JUMP JUMPDEST PUSH2 0xA86 PUSH1 0x40 MLOAD DUP1 PUSH1 0x40 ADD PUSH1 0x40 MSTORE DUP1 PUSH1 0x8 DUP2 MSTORE PUSH1 0x20 ADD PUSH8 0x39B2B4BD34B7339 PUSH1 0xC5 SHL DUP2 MSTORE POP DUP3 PUSH1 0x0 ADD MLOAD PUSH1 0x1 PUSH1 0x1 PUSH1 0xA0 SHL SUB AND PUSH4 0x95D89B41 PUSH1 0x40 MLOAD DUP2 PUSH4 0xFFFFFFFF AND PUSH1 0xE0 SHL DUP2 MSTORE PUSH1 0x4 ADD PUSH1 0x0 PUSH1 0x40 MLOAD DUP1 DUP4 SUB DUP2 DUP7 GAS STATICCALL ISZERO DUP1 ISZERO PUSH2 0x9F3 JUMPI RETURNDATASIZE PUSH1 0x0 DUP1 RETURNDATACOPY RETURNDATASIZE PUSH1 0x0 REVERT JUMPDEST DUP12 DUP7 PUSH1 0x0 DUP2 MLOAD DUP2 LT PUSH2 0xA9A JUMPI PUSH2 0xA9A PUSH2 0x1701 JUMP JUMPDEST PUSH1 0x20 MUL PUSH1 0x20 ADD ADD SWAP1 PUSH1 0x1 PUSH1 0x1 PUSH1 0xA0 SHL SUB AND SWAP1 DUP2 PUSH1 0x1 PUSH1 0x1 PUSH1 0xA0 SHL SUB AND DUP2 MSTORE POP POP DUP3 PUSH1 0x20 ADD MLOAD DUP7 PUSH1 0x1 DUP2 MLOAD DUP2 LT PUSH2 0xAD2 JUMPI PUSH2 0xAD2 PUSH2 0x1701 JUMP JUMPDEST PUSH1 0x1 PUSH1 0x1 PUSH1 0xA0 SHL SUB SWAP3 DUP4 AND PUSH1 0x20 SWAP2 DUP3 MUL SWAP3 SWAP1 SWAP3 ADD ADD MSTORE PUSH1 0x2 SLOAD AND PUSH4 0x8803DBEE DUP6 DUP14 DUP10 ADDRESS PUSH2 0xB00 TIMESTAMP PUSH1 0xF PUSH2 0x1ADD JUMP JUMPDEST PUSH1 0x40 MLOAD DUP7 PUSH4 0xFFFFFFFF AND PUSH1 0xE0 SHL DUP2 MSTORE PUSH1 0x4 ADD PUSH2 0xB20 SWAP6 SWAP5 SWAP4 SWAP3 SWAP2 SWAP1 PUSH2 0x1AF5 JUMP JUMPDEST PUSH1 0x0 PUSH1 0x40 MLOAD DUP1 DUP4 SUB DUP2 PUSH1 0x0 DUP8 GAS CALL ISZERO DUP1 ISZERO PUSH2 0xB3F JUMPI RETURNDATASIZE PUSH1 0x0 DUP1 RETURNDATACOPY RETURNDATASIZE PUSH1 0x0 REVERT JUMPDEST POP POP POP POP PUSH1 0x40 MLOAD RETURNDATASIZE PUSH1 0x0 DUP3 RETURNDATACOPY PUSH1 0x1F RETURNDATASIZE SWAP1 DUP2 ADD PUSH1 0x1F NOT AND DUP3 ADD PUSH1 0x40 MSTORE PUSH2 0xB67 SWAP2 SWAP1 DUP2 ADD SWAP1 PUSH2 0x17AD JUMP JUMPDEST POP PUSH2 0xCB3 PUSH1 0x40 MLOAD DUP1 PUSH1 0x40 ADD PUSH1 0x40 MSTORE DUP1 PUSH1 0x1A DUP2 MSTORE PUSH1 0x20 ADD PUSH32 0x4166746572207377617020726561647920746F20726570617920000000000000 DUP2 MSTORE POP DUP5 PUSH1 0x0 ADD MLOAD PUSH1 0x1 PUSH1 0x1 PUSH1 0xA0 SHL SUB AND PUSH4 0x6F307DC3 PUSH1 0x40 MLOAD DUP2 PUSH4 0xFFFFFFFF AND PUSH1 0xE0 SHL DUP2 MSTORE PUSH1 0x4 ADD PUSH1 0x20 PUSH1 0x40 MLOAD DUP1 DUP4 SUB DUP2 DUP7 GAS STATICCALL ISZERO DUP1 ISZERO PUSH2 0xBE3 JUMPI RETURNDATASIZE PUSH1 0x0 DUP1 RETURNDATACOPY RETURNDATASIZE PUSH1 0x0 REVERT JUMPDEST POP POP POP POP PUSH1 0x40 MLOAD RETURNDATASIZE PUSH1 0x1F NOT PUSH1 0x1F DUP3 ADD AND DUP3 ADD DUP1 PUSH1 0x40 MSTORE POP DUP2 ADD SWAP1 PUSH2 0xC07 SWAP2 SWAP1 PUSH2 0x16CE JUMP JUMPDEST PUSH1 0x40 MLOAD PUSH4 0x70A08231 PUSH1 0xE0 SHL DUP2 MSTORE ADDRESS PUSH1 0x4 DUP3 ADD MSTORE PUSH1 0x1 PUSH1 0x1 PUSH1 0xA0 SHL SUB SWAP2 SWAP1 SWAP2 AND SWAP1 PUSH4 0x70A08231 SWAP1 PUSH1 0x24 ADD PUSH1 0x20 PUSH1 0x40 MLOAD DUP1 DUP4 SUB DUP2 DUP7 GAS STATICCALL ISZERO DUP1 ISZERO PUSH2 0xC4D JUMPI RETURNDATASIZE PUSH1 0x0 DUP1 RETURNDATACOPY RETURNDATASIZE PUSH1 0x0 REVERT JUMPDEST POP POP POP POP PUSH1 0x40 MLOAD RETURNDATASIZE PUSH1 0x1F NOT PUSH1 0x1F DUP3 ADD AND DUP3 ADD DUP1 PUSH1 0x40 MSTORE POP DUP2 ADD SWAP1 PUSH2 0xC71 SWAP2 SWAP1 PUSH2 0x19FA JUMP JUMPDEST DUP6 PUSH1 0x20 ADD MLOAD PUSH1 0x1 PUSH1 0x1 PUSH1 0xA0 SHL SUB AND PUSH4 0x95D89B41 PUSH1 0x40 MLOAD DUP2 PUSH4 0xFFFFFFFF AND PUSH1 0xE0 SHL DUP2 MSTORE PUSH1 0x4 ADD PUSH1 0x0 PUSH1 0x40 MLOAD DUP1 DUP4 SUB DUP2 DUP7 GAS STATICCALL ISZERO DUP1 ISZERO PUSH2 0x464 JUMPI RETURNDATASIZE PUSH1 0x0 DUP1 RETURNDATACOPY RETURNDATASIZE PUSH1 0x0 REVERT JUMPDEST DUP3 MLOAD DUP2 MLOAD PUSH1 0x40 MLOAD PUSH4 0x7AF1E231 PUSH1 0xE1 SHL DUP2 MSTORE PUSH1 0x1 PUSH1 0x1 PUSH1 0xA0 SHL SUB DUP6 DUP2 AND PUSH1 0x4 DUP4 ADD MSTORE PUSH1 0x24 DUP3 ADD DUP9 SWAP1 MSTORE SWAP2 DUP3 AND PUSH1 0x44 DUP3 ADD MSTORE PUSH1 0x0 SWAP3 SWAP2 SWAP1 SWAP2 AND SWAP1 PUSH4 0xF5E3C462 SWAP1 PUSH1 0x64 ADD PUSH1 0x20 PUSH1 0x40 MLOAD DUP1 DUP4 SUB DUP2 PUSH1 0x0 DUP8 GAS CALL ISZERO DUP1 ISZERO PUSH2 0xD13 JUMPI RETURNDATASIZE PUSH1 0x0 DUP1 RETURNDATACOPY RETURNDATASIZE PUSH1 0x0 REVERT JUMPDEST POP POP POP POP PUSH1 0x40 MLOAD RETURNDATASIZE PUSH1 0x1F NOT PUSH1 0x1F DUP3 ADD AND DUP3 ADD DUP1 PUSH1 0x40 MSTORE POP DUP2 ADD SWAP1 PUSH2 0xD37 SWAP2 SWAP1 PUSH2 0x19FA JUMP JUMPDEST SWAP1 POP PUSH2 0xD66 PUSH1 0x40 MLOAD DUP1 PUSH1 0x40 ADD PUSH1 0x40 MSTORE DUP1 PUSH1 0xB DUP2 MSTORE PUSH1 0x20 ADD PUSH11 0x72657475726E20636F6465 PUSH1 0xA8 SHL DUP2 MSTORE POP DUP3 PUSH2 0x13FA JUMP JUMPDEST PUSH1 0x40 DUP1 MLOAD DUP1 DUP3 ADD DUP3 MSTORE PUSH1 0xD DUP2 MSTORE PUSH13 0x39B2B4BD32B22FA52A37B5B2B7 PUSH1 0x99 SHL PUSH1 0x20 DUP3 ADD MSTORE DUP4 MLOAD SWAP2 MLOAD PUSH4 0x70A08231 PUSH1 0xE0 SHL DUP2 MSTORE ADDRESS PUSH1 0x4 DUP3 ADD MSTORE PUSH2 0xDB9 SWAP3 PUSH1 0x1 PUSH1 0x1 PUSH1 0xA0 SHL SUB AND SWAP1 PUSH4 0x70A08231 SWAP1 PUSH1 0x24 ADD PUSH2 0x5EA JUMP JUMPDEST DUP1 ISZERO PUSH2 0xE07 JUMPI PUSH1 0x40 MLOAD PUSH3 0x461BCD PUSH1 0xE5 SHL DUP2 MSTORE PUSH1 0x20 PUSH1 0x4 DUP3 ADD DUP2 SWAP1 MSTORE PUSH1 0x24 DUP3 ADD MSTORE PUSH32 0x6261642072657475726E20636F64652066726F6D206C69717569646174696F6E PUSH1 0x44 DUP3 ADD MSTORE PUSH1 0x64 ADD PUSH2 0x6F2 JUMP JUMPDEST POP DUP1 MLOAD PUSH1 0x40 MLOAD PUSH4 0x70A08231 PUSH1 0xE0 SHL DUP2 MSTORE ADDRESS PUSH1 0x4 DUP3 ADD MSTORE PUSH1 0x0 SWAP2 PUSH1 0x1 PUSH1 0x1 PUSH1 0xA0 SHL SUB AND SWAP1 PUSH4 0xDB006A75 SWAP1 DUP3 SWAP1 PUSH4 0x70A08231 SWAP1 PUSH1 0x24 ADD PUSH1 0x20 PUSH1 0x40 MLOAD DUP1 DUP4 SUB DUP2 DUP7 GAS STATICCALL ISZERO DUP1 ISZERO PUSH2 0xE58 JUMPI RETURNDATASIZE PUSH1 0x0 DUP1 RETURNDATACOPY RETURNDATASIZE PUSH1 0x0 REVERT JUMPDEST POP POP POP POP PUSH1 0x40 MLOAD RETURNDATASIZE PUSH1 0x1F NOT PUSH1 0x1F DUP3 ADD AND DUP3 ADD DUP1 PUSH1 0x40 MSTORE POP DUP2 ADD SWAP1 PUSH2 0xE7C SWAP2 SWAP1 PUSH2 0x19FA JUMP JUMPDEST PUSH1 0x40 MLOAD DUP3 PUSH4 0xFFFFFFFF AND PUSH1 0xE0 SHL DUP2 MSTORE PUSH1 0x4 ADD PUSH2 0xE9A SWAP2 DUP2 MSTORE PUSH1 0x20 ADD SWAP1 JUMP JUMPDEST PUSH1 0x20 PUSH1 0x40 MLOAD DUP1 DUP4 SUB DUP2 PUSH1 0x0 DUP8 GAS CALL ISZERO DUP1 ISZERO PUSH2 0xEB9 JUMPI RETURNDATASIZE PUSH1 0x0 DUP1 RETURNDATACOPY RETURNDATASIZE PUSH1 0x0 REVERT JUMPDEST POP POP POP POP PUSH1 0x40 MLOAD RETURNDATASIZE PUSH1 0x1F NOT PUSH1 0x1F DUP3 ADD AND DUP3 ADD DUP1 PUSH1 0x40 MSTORE POP DUP2 ADD SWAP1 PUSH2 0xEDD SWAP2 SWAP1 PUSH2 0x19FA JUMP JUMPDEST SWAP1 POP DUP1 ISZERO PUSH2 0xF2D JUMPI PUSH1 0x40 MLOAD PUSH3 0x461BCD PUSH1 0xE5 SHL DUP2 MSTORE PUSH1 0x20 PUSH1 0x4 DUP3 ADD MSTORE PUSH1 0x1B PUSH1 0x24 DUP3 ADD MSTORE PUSH32 0x6261642072657475726E20636F64652066726F6D2072656465656D0000000000 PUSH1 0x44 DUP3 ADD MSTORE PUSH1 0x64 ADD PUSH2 0x6F2 JUMP JUMPDEST PUSH1 0x20 DUP3 ADD MLOAD PUSH1 0x40 MLOAD PUSH4 0x70A08231 PUSH1 0xE0 SHL DUP2 MSTORE ADDRESS PUSH1 0x4 DUP3 ADD MSTORE PUSH1 0x0 SWAP2 PUSH1 0x1 PUSH1 0x1 PUSH1 0xA0 SHL SUB AND SWAP1 PUSH4 0x70A08231 SWAP1 PUSH1 0x24 ADD PUSH1 0x20 PUSH1 0x40 MLOAD DUP1 DUP4 SUB DUP2 DUP7 GAS STATICCALL ISZERO DUP1 ISZERO PUSH2 0xF78 JUMPI RETURNDATASIZE PUSH1 0x0 DUP1 RETURNDATACOPY RETURNDATASIZE PUSH1 0x0 REVERT JUMPDEST POP POP POP POP PUSH1 0x40 MLOAD RETURNDATASIZE PUSH1 0x1F NOT PUSH1 0x1F DUP3 ADD AND DUP3 ADD DUP1 PUSH1 0x40 MSTORE POP DUP2 ADD SWAP1 PUSH2 0xF9C SWAP2 SWAP1 PUSH2 0x19FA JUMP JUMPDEST SWAP1 POP PUSH2 0xFC8 PUSH1 0x40 MLOAD DUP1 PUSH1 0x40 ADD PUSH1 0x40 MSTORE DUP1 PUSH1 0x8 DUP2 MSTORE PUSH1 0x20 ADD PUSH8 0x1C995919595B5959 PUSH1 0xC2 SHL DUP2 MSTORE POP DUP3 PUSH2 0x13FA JUMP JUMPDEST DUP3 PUSH1 0x20 ADD MLOAD DUP9 PUSH1 0x0 DUP2 MLOAD DUP2 LT PUSH2 0xFE0 JUMPI PUSH2 0xFE0 PUSH2 0x1701 JUMP JUMPDEST PUSH1 0x20 MUL PUSH1 0x20 ADD ADD SWAP1 PUSH1 0x1 PUSH1 0x1 PUSH1 0xA0 SHL SUB AND SWAP1 DUP2 PUSH1 0x1 PUSH1 0x1 PUSH1 0xA0 SHL SUB AND DUP2 MSTORE POP POP DUP14 DUP9 PUSH1 0x1 DUP2 MLOAD DUP2 LT PUSH2 0x1014 JUMPI PUSH2 0x1014 PUSH2 0x1701 JUMP JUMPDEST PUSH1 0x1 PUSH1 0x1 PUSH1 0xA0 SHL SUB SWAP3 DUP4 AND PUSH1 0x20 SWAP2 DUP3 MUL SWAP3 SWAP1 SWAP3 ADD ADD MSTORE PUSH1 0x2 SLOAD PUSH1 0x40 MLOAD PUSH4 0xD06CA61F PUSH1 0xE0 SHL DUP2 MSTORE SWAP2 AND SWAP1 PUSH4 0xD06CA61F SWAP1 PUSH2 0x1053 SWAP1 DUP5 SWAP1 DUP13 SWAP1 PUSH1 0x4 ADD PUSH2 0x175B JUMP JUMPDEST PUSH1 0x0 PUSH1 0x40 MLOAD DUP1 DUP4 SUB DUP2 DUP7 GAS STATICCALL ISZERO DUP1 ISZERO PUSH2 0x1070 JUMPI RETURNDATASIZE PUSH1 0x0 DUP1 RETURNDATACOPY RETURNDATASIZE PUSH1 0x0 REVERT JUMPDEST POP POP POP POP PUSH1 0x40 MLOAD RETURNDATASIZE PUSH1 0x0 DUP3 RETURNDATACOPY PUSH1 0x1F RETURNDATASIZE SWAP1 DUP2 ADD PUSH1 0x1F NOT AND DUP3 ADD PUSH1 0x40 MSTORE PUSH2 0x1098 SWAP2 SWAP1 DUP2 ADD SWAP1 PUSH2 0x17AD JUMP JUMPDEST SWAP7 POP PUSH1 0x0 JUMPDEST DUP8 MLOAD DUP2 LT ISZERO PUSH2 0x10DA JUMPI PUSH2 0x10C8 DUP9 DUP3 DUP2 MLOAD DUP2 LT PUSH2 0x10BB JUMPI PUSH2 0x10BB PUSH2 0x1701 JUMP JUMPDEST PUSH1 0x20 MUL PUSH1 0x20 ADD ADD MLOAD PUSH2 0x14CD JUMP JUMPDEST DUP1 PUSH2 0x10D2 DUP2 PUSH2 0x1B31 JUMP JUMPDEST SWAP2 POP POP PUSH2 0x109D JUMP JUMPDEST POP PUSH2 0x112F PUSH1 0x40 MLOAD DUP1 PUSH1 0x40 ADD PUSH1 0x40 MSTORE DUP1 PUSH1 0x3 DUP2 MSTORE PUSH1 0x20 ADD PUSH3 0x1BDD5D PUSH1 0xEA SHL DUP2 MSTORE POP PUSH2 0x3FA DUP10 PUSH1 0x1 DUP2 MLOAD DUP2 LT PUSH2 0x1110 JUMPI PUSH2 0x1110 PUSH2 0x1701 JUMP JUMPDEST PUSH1 0x20 MUL PUSH1 0x20 ADD ADD MLOAD PUSH2 0x3CC PUSH2 0x1125 SWAP2 SWAP1 PUSH2 0x1B4C JUMP JUMPDEST PUSH2 0x62B SWAP2 SWAP1 PUSH2 0x1B6B JUMP JUMPDEST PUSH1 0x20 DUP4 ADD MLOAD PUSH1 0x2 SLOAD PUSH1 0x40 MLOAD PUSH4 0x95EA7B3 PUSH1 0xE0 SHL DUP2 MSTORE PUSH1 0x1 PUSH1 0x1 PUSH1 0xA0 SHL SUB SWAP2 DUP3 AND PUSH1 0x4 DUP3 ADD MSTORE PUSH1 0x24 DUP2 ADD DUP5 SWAP1 MSTORE SWAP2 AND SWAP1 PUSH4 0x95EA7B3 SWAP1 PUSH1 0x44 ADD PUSH1 0x0 PUSH1 0x40 MLOAD DUP1 DUP4 SUB DUP2 PUSH1 0x0 DUP8 DUP1 EXTCODESIZE ISZERO DUP1 ISZERO PUSH2 0x1181 JUMPI PUSH1 0x0 DUP1 REVERT JUMPDEST POP GAS CALL ISZERO DUP1 ISZERO PUSH2 0x1195 JUMPI RETURNDATASIZE PUSH1 0x0 DUP1 RETURNDATACOPY RETURNDATASIZE PUSH1 0x0 REVERT JUMPDEST POP POP PUSH1 0x2 SLOAD DUP10 MLOAD PUSH1 0x1 PUSH1 0x1 PUSH1 0xA0 SHL SUB SWAP1 SWAP2 AND SWAP3 POP PUSH4 0x38ED1739 SWAP2 POP DUP4 SWAP1 PUSH2 0x3FA SWAP1 DUP12 SWAP1 PUSH1 0x1 SWAP1 DUP2 LT PUSH2 0x11C9 JUMPI PUSH2 0x11C9 PUSH2 0x1701 JUMP JUMPDEST PUSH1 0x20 MUL PUSH1 0x20 ADD ADD MLOAD PUSH2 0x3CC PUSH2 0x11DE SWAP2 SWAP1 PUSH2 0x1B4C JUMP JUMPDEST PUSH2 0x11E8 SWAP2 SWAP1 PUSH2 0x1B6B JUMP JUMPDEST DUP12 ADDRESS PUSH2 0x11F5 TIMESTAMP PUSH1 0xF PUSH2 0x1ADD JUMP JUMPDEST PUSH1 0x40 MLOAD DUP7 PUSH4 0xFFFFFFFF AND PUSH1 0xE0 SHL DUP2 MSTORE PUSH1 0x4 ADD PUSH2 0x1215 SWAP6 SWAP5 SWAP4 SWAP3 SWAP2 SWAP1 PUSH2 0x1AF5 JUMP JUMPDEST PUSH1 0x0 PUSH1 0x40 MLOAD DUP1 DUP4 SUB DUP2 PUSH1 0x0 DUP8 GAS CALL ISZERO DUP1 ISZERO PUSH2 0x1234 JUMPI RETURNDATASIZE PUSH1 0x0 DUP1 RETURNDATACOPY RETURNDATASIZE PUSH1 0x0 REVERT JUMPDEST POP POP POP POP PUSH1 0x40 MLOAD RETURNDATASIZE PUSH1 0x0 DUP3 RETURNDATACOPY PUSH1 0x1F RETURNDATASIZE SWAP1 DUP2 ADD PUSH1 0x1F NOT AND DUP3 ADD PUSH1 0x40 MSTORE PUSH2 0x125C SWAP2 SWAP1 DUP2 ADD SWAP1 PUSH2 0x17AD JUMP JUMPDEST POP PUSH32 0x7968BA28153757DE2DA7BCE4C2BA9EBAF94445061F3050DE1B0DE5C34BB7D5D8 SWAP16 SWAP15 POP POP POP POP POP POP POP POP POP POP POP POP POP POP POP JUMP JUMPDEST PUSH1 0x0 SLOAD PUSH1 0x1 PUSH1 0x1 PUSH1 0xA0 SHL SUB AND CALLER EQ PUSH2 0x12BB JUMPI PUSH1 0x40 MLOAD PUSH3 0x461BCD PUSH1 0xE5 SHL DUP2 MSTORE PUSH1 0x4 ADD PUSH2 0x6F2 SWAP1 PUSH2 0x1B8D JUMP JUMPDEST PUSH1 0x2 DUP1 SLOAD PUSH1 0x1 PUSH1 0x1 PUSH1 0xA0 SHL SUB NOT AND PUSH1 0x1 PUSH1 0x1 PUSH1 0xA0 SHL SUB SWAP3 SWAP1 SWAP3 AND SWAP2 SWAP1 SWAP2 OR SWAP1 SSTORE JUMP JUMPDEST PUSH1 0x0 SLOAD PUSH1 0x1 PUSH1 0x1 PUSH1 0xA0 SHL SUB AND CALLER EQ PUSH2 0x1307 JUMPI PUSH1 0x40 MLOAD PUSH3 0x461BCD PUSH1 0xE5 SHL DUP2 MSTORE PUSH1 0x4 ADD PUSH2 0x6F2 SWAP1 PUSH2 0x1B8D JUMP JUMPDEST PUSH2 0x1311 PUSH1 0x0 PUSH2 0x1512 JUMP JUMPDEST JUMP JUMPDEST PUSH1 0x0 SLOAD PUSH1 0x1 PUSH1 0x1 PUSH1 0xA0 SHL SUB AND CALLER EQ PUSH2 0x133D JUMPI PUSH1 0x40 MLOAD PUSH3 0x461BCD PUSH1 0xE5 SHL DUP2 MSTORE PUSH1 0x4 ADD PUSH2 0x6F2 SWAP1 PUSH2 0x1B8D JUMP JUMPDEST PUSH1 0x1 PUSH1 0x1 PUSH1 0xA0 SHL SUB DUP2 AND PUSH2 0x13A2 JUMPI PUSH1 0x40 MLOAD PUSH3 0x461BCD PUSH1 0xE5 SHL DUP2 MSTORE PUSH1 0x20 PUSH1 0x4 DUP3 ADD MSTORE PUSH1 0x26 PUSH1 0x24 DUP3 ADD MSTORE PUSH32 0x4F776E61626C653A206E6577206F776E657220697320746865207A65726F2061 PUSH1 0x44 DUP3 ADD MSTORE PUSH6 0x646472657373 PUSH1 0xD0 SHL PUSH1 0x64 DUP3 ADD MSTORE PUSH1 0x84 ADD PUSH2 0x6F2 JUMP JUMPDEST PUSH2 0x13AB DUP2 PUSH2 0x1512 JUMP JUMPDEST POP JUMP JUMPDEST PUSH2 0x13F5 DUP4 DUP4 DUP4 PUSH1 0x40 MLOAD PUSH1 0x24 ADD PUSH2 0x13C6 SWAP4 SWAP3 SWAP2 SWAP1 PUSH2 0x1BC2 JUMP JUMPDEST PUSH1 0x40 DUP1 MLOAD PUSH1 0x1F NOT DUP2 DUP5 SUB ADD DUP2 MSTORE SWAP2 SWAP1 MSTORE PUSH1 0x20 DUP2 ADD DUP1 MLOAD PUSH1 0x1 PUSH1 0x1 PUSH1 0xE0 SHL SUB AND PUSH4 0xA3F5C739 PUSH1 0xE0 SHL OR SWAP1 MSTORE PUSH2 0x1562 JUMP JUMPDEST POP POP POP JUMP JUMPDEST PUSH2 0x143F DUP3 DUP3 PUSH1 0x40 MLOAD PUSH1 0x24 ADD PUSH2 0x1410 SWAP3 SWAP2 SWAP1 PUSH2 0x1BED JUMP JUMPDEST PUSH1 0x40 DUP1 MLOAD PUSH1 0x1F NOT DUP2 DUP5 SUB ADD DUP2 MSTORE SWAP2 SWAP1 MSTORE PUSH1 0x20 DUP2 ADD DUP1 MLOAD PUSH1 0x1 PUSH1 0x1 PUSH1 0xE0 SHL SUB AND PUSH4 0x9710A9D PUSH1 0xE4 SHL OR SWAP1 MSTORE PUSH2 0x1562 JUMP JUMPDEST POP POP JUMP JUMPDEST PUSH2 0x143F DUP3 DUP3 PUSH1 0x40 MLOAD PUSH1 0x24 ADD PUSH2 0x1459 SWAP3 SWAP2 SWAP1 PUSH2 0x1C0F JUMP JUMPDEST PUSH1 0x40 DUP1 MLOAD PUSH1 0x1F NOT DUP2 DUP5 SUB ADD DUP2 MSTORE SWAP2 SWAP1 MSTORE PUSH1 0x20 DUP2 ADD DUP1 MLOAD PUSH1 0x1 PUSH1 0x1 PUSH1 0xE0 SHL SUB AND PUSH4 0x319AF333 PUSH1 0xE0 SHL OR SWAP1 MSTORE PUSH2 0x1562 JUMP JUMPDEST PUSH2 0x143F DUP3 DUP3 PUSH1 0x40 MLOAD PUSH1 0x24 ADD PUSH2 0x149E SWAP3 SWAP2 SWAP1 PUSH2 0x1C39 JUMP JUMPDEST PUSH1 0x40 DUP1 MLOAD PUSH1 0x1F NOT DUP2 DUP5 SUB ADD DUP2 MSTORE SWAP2 SWAP1 MSTORE PUSH1 0x20 DUP2 ADD DUP1 MLOAD PUSH1 0x1 PUSH1 0x1 PUSH1 0xE0 SHL SUB AND PUSH4 0x4B5C4277 PUSH1 0xE0 SHL OR SWAP1 MSTORE PUSH2 0x1562 JUMP JUMPDEST PUSH2 0x13AB DUP2 PUSH1 0x40 MLOAD PUSH1 0x24 ADD PUSH2 0x14E3 SWAP2 DUP2 MSTORE PUSH1 0x20 ADD SWAP1 JUMP JUMPDEST PUSH1 0x40 DUP1 MLOAD PUSH1 0x1F NOT DUP2 DUP5 SUB ADD DUP2 MSTORE SWAP2 SWAP1 MSTORE PUSH1 0x20 DUP2 ADD DUP1 MLOAD PUSH1 0x1 PUSH1 0x1 PUSH1 0xE0 SHL SUB AND PUSH4 0xF5B1BBA9 PUSH1 0xE0 SHL OR SWAP1 MSTORE PUSH2 0x1562 JUMP JUMPDEST PUSH1 0x0 DUP1 SLOAD PUSH1 0x1 PUSH1 0x1 PUSH1 0xA0 SHL SUB DUP4 DUP2 AND PUSH1 0x1 PUSH1 0x1 PUSH1 0xA0 SHL SUB NOT DUP4 AND DUP2 OR DUP5 SSTORE PUSH1 0x40 MLOAD SWAP2 SWAP1 SWAP3 AND SWAP3 DUP4 SWAP2 PUSH32 0x8BE0079C531659141344CD1FD0A4F28419497F9722A3DAAFE3B4186F6B6457E0 SWAP2 SWAP1 LOG3 POP POP JUMP JUMPDEST DUP1 MLOAD PUSH11 0x636F6E736F6C652E6C6F67 PUSH1 0x20 DUP4 ADD PUSH1 0x0 DUP1 DUP5 DUP4 DUP6 GAS STATICCALL POP POP POP POP POP JUMP JUMPDEST PUSH1 0x1 PUSH1 0x1 PUSH1 0xA0 SHL SUB DUP2 AND DUP2 EQ PUSH2 0x13AB JUMPI PUSH1 0x0 DUP1 REVERT JUMPDEST PUSH1 0x0 DUP1 PUSH1 0x0 DUP1 PUSH1 0x0 PUSH1 0xA0 DUP7 DUP9 SUB SLT ISZERO PUSH2 0x15B0 JUMPI PUSH1 0x0 DUP1 REVERT JUMPDEST DUP6 CALLDATALOAD PUSH2 0x15BB DUP2 PUSH2 0x1583 JUMP JUMPDEST SWAP5 POP PUSH1 0x20 DUP7 ADD CALLDATALOAD SWAP4 POP PUSH1 0x40 DUP7 ADD CALLDATALOAD PUSH2 0x15D2 DUP2 PUSH2 0x1583 JUMP JUMPDEST SWAP3 POP PUSH1 0x60 DUP7 ADD CALLDATALOAD PUSH2 0x15E2 DUP2 PUSH2 0x1583 JUMP JUMPDEST SWAP2 POP PUSH1 0x80 DUP7 ADD CALLDATALOAD PUSH2 0x15F2 DUP2 PUSH2 0x1583 JUMP JUMPDEST DUP1 SWAP2 POP POP SWAP3 SWAP6 POP SWAP3 SWAP6 SWAP1 SWAP4 POP JUMP JUMPDEST PUSH1 0x0 DUP1 PUSH1 0x0 DUP1 PUSH1 0x0 DUP1 PUSH1 0xA0 DUP8 DUP10 SUB SLT ISZERO PUSH2 0x1619 JUMPI PUSH1 0x0 DUP1 REVERT JUMPDEST DUP7 CALLDATALOAD PUSH2 0x1624 DUP2 PUSH2 0x1583 JUMP JUMPDEST SWAP6 POP PUSH1 0x20 DUP8 ADD CALLDATALOAD PUSH2 0x1634 DUP2 PUSH2 0x1583 JUMP JUMPDEST SWAP5 POP PUSH1 0x40 DUP8 ADD CALLDATALOAD SWAP4 POP PUSH1 0x60 DUP8 ADD CALLDATALOAD SWAP3 POP PUSH1 0x80 DUP8 ADD CALLDATALOAD PUSH8 0xFFFFFFFFFFFFFFFF DUP1 DUP3 GT ISZERO PUSH2 0x165F JUMPI PUSH1 0x0 DUP1 REVERT JUMPDEST DUP2 DUP10 ADD SWAP2 POP DUP10 PUSH1 0x1F DUP4 ADD SLT PUSH2 0x1673 JUMPI PUSH1 0x0 DUP1 REVERT JUMPDEST DUP2 CALLDATALOAD DUP2 DUP2 GT ISZERO PUSH2 0x1682 JUMPI PUSH1 0x0 DUP1 REVERT JUMPDEST DUP11 PUSH1 0x20 DUP3 DUP6 ADD ADD GT ISZERO PUSH2 0x1694 JUMPI PUSH1 0x0 DUP1 REVERT JUMPDEST PUSH1 0x20 DUP4 ADD SWAP5 POP DUP1 SWAP4 POP POP POP POP SWAP3 SWAP6 POP SWAP3 SWAP6 POP SWAP3 SWAP6 JUMP JUMPDEST PUSH1 0x0 PUSH1 0x20 DUP3 DUP5 SUB SLT ISZERO PUSH2 0x16BC JUMPI PUSH1 0x0 DUP1 REVERT JUMPDEST DUP2 CALLDATALOAD PUSH2 0x16C7 DUP2 PUSH2 0x1583 JUMP JUMPDEST SWAP4 SWAP3 POP POP POP JUMP JUMPDEST PUSH1 0x0 PUSH1 0x20 DUP3 DUP5 SUB SLT ISZERO PUSH2 0x16E0 JUMPI PUSH1 0x0 DUP1 REVERT JUMPDEST DUP2 MLOAD PUSH2 0x16C7 DUP2 PUSH2 0x1583 JUMP JUMPDEST PUSH4 0x4E487B71 PUSH1 0xE0 SHL PUSH1 0x0 MSTORE PUSH1 0x41 PUSH1 0x4 MSTORE PUSH1 0x24 PUSH1 0x0 REVERT JUMPDEST PUSH4 0x4E487B71 PUSH1 0xE0 SHL PUSH1 0x0 MSTORE PUSH1 0x32 PUSH1 0x4 MSTORE PUSH1 0x24 PUSH1 0x0 REVERT JUMPDEST PUSH1 0x0 DUP2 MLOAD DUP1 DUP5 MSTORE PUSH1 0x20 DUP1 DUP6 ADD SWAP5 POP DUP1 DUP5 ADD PUSH1 0x0 JUMPDEST DUP4 DUP2 LT ISZERO PUSH2 0x1750 JUMPI DUP2 MLOAD PUSH1 0x1 PUSH1 0x1 PUSH1 0xA0 SHL SUB AND DUP8 MSTORE SWAP6 DUP3 ADD SWAP6 SWAP1 DUP3 ADD SWAP1 PUSH1 0x1 ADD PUSH2 0x172B JUMP JUMPDEST POP SWAP5 SWAP6 SWAP5 POP POP POP POP POP JUMP JUMPDEST DUP3 DUP2 MSTORE PUSH1 0x40 PUSH1 0x20 DUP3 ADD MSTORE PUSH1 0x0 PUSH2 0x1774 PUSH1 0x40 DUP4 ADD DUP5 PUSH2 0x1717 JUMP JUMPDEST SWAP5 SWAP4 POP POP POP POP JUMP JUMPDEST PUSH1 0x40 MLOAD PUSH1 0x1F DUP3 ADD PUSH1 0x1F NOT AND DUP2 ADD PUSH8 0xFFFFFFFFFFFFFFFF DUP2 GT DUP3 DUP3 LT OR ISZERO PUSH2 0x17A5 JUMPI PUSH2 0x17A5 PUSH2 0x16EB JUMP JUMPDEST PUSH1 0x40 MSTORE SWAP2 SWAP1 POP JUMP JUMPDEST PUSH1 0x0 PUSH1 0x20 DUP1 DUP4 DUP6 SUB SLT ISZERO PUSH2 0x17C0 JUMPI PUSH1 0x0 DUP1 REVERT JUMPDEST DUP3 MLOAD PUSH8 0xFFFFFFFFFFFFFFFF DUP1 DUP3 GT ISZERO PUSH2 0x17D8 JUMPI PUSH1 0x0 DUP1 REVERT JUMPDEST DUP2 DUP6 ADD SWAP2 POP DUP6 PUSH1 0x1F DUP4 ADD SLT PUSH2 0x17EC JUMPI PUSH1 0x0 DUP1 REVERT JUMPDEST DUP2 MLOAD DUP2 DUP2 GT ISZERO PUSH2 0x17FE JUMPI PUSH2 0x17FE PUSH2 0x16EB JUMP JUMPDEST DUP1 PUSH1 0x5 SHL SWAP2 POP PUSH2 0x180F DUP5 DUP4 ADD PUSH2 0x177C JUMP JUMPDEST DUP2 DUP2 MSTORE SWAP2 DUP4 ADD DUP5 ADD SWAP2 DUP5 DUP2 ADD SWAP1 DUP9 DUP5 GT ISZERO PUSH2 0x1829 JUMPI PUSH1 0x0 DUP1 REVERT JUMPDEST SWAP4 DUP6 ADD SWAP4 JUMPDEST DUP4 DUP6 LT ISZERO PUSH2 0x1847 JUMPI DUP5 MLOAD DUP3 MSTORE SWAP4 DUP6 ADD SWAP4 SWAP1 DUP6 ADD SWAP1 PUSH2 0x182E JUMP JUMPDEST SWAP9 SWAP8 POP POP POP POP POP POP POP POP JUMP JUMPDEST PUSH1 0x0 JUMPDEST DUP4 DUP2 LT ISZERO PUSH2 0x186E JUMPI DUP2 DUP2 ADD MLOAD DUP4 DUP3 ADD MSTORE PUSH1 0x20 ADD PUSH2 0x1856 JUMP JUMPDEST DUP4 DUP2 GT ISZERO PUSH2 0x187D JUMPI PUSH1 0x0 DUP5 DUP5 ADD MSTORE JUMPDEST POP POP POP POP JUMP JUMPDEST PUSH1 0x0 PUSH1 0x20 DUP3 DUP5 SUB SLT ISZERO PUSH2 0x1895 JUMPI PUSH1 0x0 DUP1 REVERT JUMPDEST DUP2 MLOAD PUSH8 0xFFFFFFFFFFFFFFFF DUP1 DUP3 GT ISZERO PUSH2 0x18AD JUMPI PUSH1 0x0 DUP1 REVERT JUMPDEST DUP2 DUP5 ADD SWAP2 POP DUP5 PUSH1 0x1F DUP4 ADD SLT PUSH2 0x18C1 JUMPI PUSH1 0x0 DUP1 REVERT JUMPDEST DUP2 MLOAD DUP2 DUP2 GT ISZERO PUSH2 0x18D3 JUMPI PUSH2 0x18D3 PUSH2 0x16EB JUMP JUMPDEST PUSH2 0x18E6 PUSH1 0x1F DUP3 ADD PUSH1 0x1F NOT AND PUSH1 0x20 ADD PUSH2 0x177C JUMP JUMPDEST SWAP2 POP DUP1 DUP3 MSTORE DUP6 PUSH1 0x20 DUP3 DUP6 ADD ADD GT ISZERO PUSH2 0x18FD JUMPI PUSH1 0x0 DUP1 REVERT JUMPDEST PUSH2 0x190E DUP2 PUSH1 0x20 DUP5 ADD PUSH1 0x20 DUP7 ADD PUSH2 0x1853 JUMP JUMPDEST POP SWAP5 SWAP4 POP POP POP POP JUMP JUMPDEST DUP5 DUP2 MSTORE PUSH1 0xC0 DUP2 ADD PUSH2 0x1941 PUSH1 0x20 DUP4 ADD DUP7 DUP1 MLOAD PUSH1 0x1 PUSH1 0x1 PUSH1 0xA0 SHL SUB SWAP1 DUP2 AND DUP4 MSTORE PUSH1 0x20 SWAP2 DUP3 ADD MLOAD AND SWAP2 ADD MSTORE JUMP JUMPDEST PUSH1 0x1 PUSH1 0x1 PUSH1 0xA0 SHL SUB DUP5 DUP2 AND PUSH1 0x60 DUP5 ADD MSTORE DUP4 MLOAD DUP2 AND PUSH1 0x80 DUP5 ADD MSTORE PUSH1 0x20 DUP5 ADD MLOAD AND PUSH1 0xA0 DUP4 ADD MSTORE JUMPDEST SWAP6 SWAP5 POP POP POP POP POP JUMP JUMPDEST PUSH1 0x0 DUP2 MLOAD DUP1 DUP5 MSTORE PUSH2 0x1987 DUP2 PUSH1 0x20 DUP7 ADD PUSH1 0x20 DUP7 ADD PUSH2 0x1853 JUMP JUMPDEST PUSH1 0x1F ADD PUSH1 0x1F NOT AND SWAP3 SWAP1 SWAP3 ADD PUSH1 0x20 ADD SWAP3 SWAP2 POP POP JUMP JUMPDEST PUSH1 0x1 PUSH1 0x1 PUSH1 0xA0 SHL SUB DUP6 DUP2 AND DUP3 MSTORE DUP5 AND PUSH1 0x20 DUP3 ADD MSTORE PUSH1 0x40 DUP2 ADD DUP4 SWAP1 MSTORE PUSH1 0x80 PUSH1 0x60 DUP3 ADD DUP2 SWAP1 MSTORE PUSH1 0x0 SWAP1 PUSH2 0x19CE SWAP1 DUP4 ADD DUP5 PUSH2 0x196F JUMP JUMPDEST SWAP7 SWAP6 POP POP POP POP POP POP JUMP JUMPDEST PUSH1 0x0 PUSH1 0x20 DUP3 DUP5 SUB SLT ISZERO PUSH2 0x19EA JUMPI PUSH1 0x0 DUP1 REVERT JUMPDEST DUP2 MLOAD DUP1 ISZERO ISZERO DUP2 EQ PUSH2 0x16C7 JUMPI PUSH1 0x0 DUP1 REVERT JUMPDEST PUSH1 0x0 PUSH1 0x20 DUP3 DUP5 SUB SLT ISZERO PUSH2 0x1A0C JUMPI PUSH1 0x0 DUP1 REVERT JUMPDEST POP MLOAD SWAP2 SWAP1 POP JUMP JUMPDEST PUSH1 0x0 PUSH1 0x40 DUP3 DUP5 SUB SLT ISZERO PUSH2 0x1A25 JUMPI PUSH1 0x0 DUP1 REVERT JUMPDEST PUSH1 0x40 MLOAD PUSH1 0x40 DUP2 ADD DUP2 DUP2 LT PUSH8 0xFFFFFFFFFFFFFFFF DUP3 GT OR ISZERO PUSH2 0x1A48 JUMPI PUSH2 0x1A48 PUSH2 0x16EB JUMP JUMPDEST PUSH1 0x40 MSTORE SWAP1 POP DUP1 DUP3 CALLDATALOAD PUSH2 0x1A59 DUP2 PUSH2 0x1583 JUMP JUMPDEST DUP2 MSTORE PUSH1 0x20 DUP4 ADD CALLDATALOAD PUSH2 0x1A69 DUP2 PUSH2 0x1583 JUMP JUMPDEST PUSH1 0x20 SWAP2 SWAP1 SWAP2 ADD MSTORE SWAP3 SWAP2 POP POP JUMP JUMPDEST PUSH1 0x0 DUP1 PUSH1 0x0 DUP1 PUSH1 0xC0 DUP6 DUP8 SUB SLT ISZERO PUSH2 0x1A8C JUMPI PUSH1 0x0 DUP1 REVERT JUMPDEST DUP5 CALLDATALOAD SWAP4 POP PUSH2 0x1A9D DUP7 PUSH1 0x20 DUP8 ADD PUSH2 0x1A13 JUMP JUMPDEST SWAP3 POP PUSH1 0x60 DUP6 ADD CALLDATALOAD PUSH2 0x1AAD DUP2 PUSH2 0x1583 JUMP JUMPDEST SWAP2 POP PUSH2 0x1ABC DUP7 PUSH1 0x80 DUP8 ADD PUSH2 0x1A13 JUMP JUMPDEST SWAP1 POP SWAP3 SWAP6 SWAP2 SWAP5 POP SWAP3 POP JUMP JUMPDEST PUSH4 0x4E487B71 PUSH1 0xE0 SHL PUSH1 0x0 MSTORE PUSH1 0x11 PUSH1 0x4 MSTORE PUSH1 0x24 PUSH1 0x0 REVERT JUMPDEST PUSH1 0x0 DUP3 NOT DUP3 GT ISZERO PUSH2 0x1AF0 JUMPI PUSH2 0x1AF0 PUSH2 0x1AC7 JUMP JUMPDEST POP ADD SWAP1 JUMP JUMPDEST DUP6 DUP2 MSTORE DUP5 PUSH1 0x20 DUP3 ADD MSTORE PUSH1 0xA0 PUSH1 0x40 DUP3 ADD MSTORE PUSH1 0x0 PUSH2 0x1B14 PUSH1 0xA0 DUP4 ADD DUP7 PUSH2 0x1717 JUMP JUMPDEST PUSH1 0x1 PUSH1 0x1 PUSH1 0xA0 SHL SUB SWAP5 SWAP1 SWAP5 AND PUSH1 0x60 DUP4 ADD MSTORE POP PUSH1 0x80 ADD MSTORE SWAP4 SWAP3 POP POP POP JUMP JUMPDEST PUSH1 0x0 PUSH1 0x0 NOT DUP3 EQ ISZERO PUSH2 0x1B45 JUMPI PUSH2 0x1B45 PUSH2 0x1AC7 JUMP JUMPDEST POP PUSH1 0x1 ADD SWAP1 JUMP JUMPDEST PUSH1 0x0 DUP2 PUSH1 0x0 NOT DIV DUP4 GT DUP3 ISZERO ISZERO AND ISZERO PUSH2 0x1B66 JUMPI PUSH2 0x1B66 PUSH2 0x1AC7 JUMP JUMPDEST POP MUL SWAP1 JUMP JUMPDEST PUSH1 0x0 DUP3 PUSH2 0x1B88 JUMPI PUSH4 0x4E487B71 PUSH1 0xE0 SHL PUSH1 0x0 MSTORE PUSH1 0x12 PUSH1 0x4 MSTORE PUSH1 0x24 PUSH1 0x0 REVERT JUMPDEST POP DIV SWAP1 JUMP JUMPDEST PUSH1 0x20 DUP1 DUP3 MSTORE DUP2 DUP2 ADD MSTORE PUSH32 0x4F776E61626C653A2063616C6C6572206973206E6F7420746865206F776E6572 PUSH1 0x40 DUP3 ADD MSTORE PUSH1 0x60 ADD SWAP1 JUMP JUMPDEST PUSH1 0x60 DUP2 MSTORE PUSH1 0x0 PUSH2 0x1BD5 PUSH1 0x60 DUP4 ADD DUP7 PUSH2 0x196F JUMP JUMPDEST DUP5 PUSH1 0x20 DUP5 ADD MSTORE DUP3 DUP2 SUB PUSH1 0x40 DUP5 ADD MSTORE PUSH2 0x19CE DUP2 DUP6 PUSH2 0x196F JUMP JUMPDEST PUSH1 0x40 DUP2 MSTORE PUSH1 0x0 PUSH2 0x1C00 PUSH1 0x40 DUP4 ADD DUP6 PUSH2 0x196F JUMP JUMPDEST SWAP1 POP DUP3 PUSH1 0x20 DUP4 ADD MSTORE SWAP4 SWAP3 POP POP POP JUMP JUMPDEST PUSH1 0x40 DUP2 MSTORE PUSH1 0x0 PUSH2 0x1C22 PUSH1 0x40 DUP4 ADD DUP6 PUSH2 0x196F JUMP JUMPDEST SWAP1 POP PUSH1 0x1 DUP1 PUSH1 0xA0 SHL SUB DUP4 AND PUSH1 0x20 DUP4 ADD MSTORE SWAP4 SWAP3 POP POP POP JUMP JUMPDEST PUSH1 0x40 DUP2 MSTORE PUSH1 0x0 PUSH2 0x1C4C PUSH1 0x40 DUP4 ADD DUP6 PUSH2 0x196F JUMP JUMPDEST DUP3 DUP2 SUB PUSH1 0x20 DUP5 ADD MSTORE PUSH2 0x1966 DUP2 DUP6 PUSH2 0x196F JUMP INVALID LOG2 PUSH5 0x6970667358 0x22 SLT KECCAK256 0xC2 PUSH27 0x202AF38D1537608EBFB3FEFBA62D25AD628691B04358EF2D867730 CALLVALUE SWAP13 DUP13 PUSH5 0x736F6C6343 STOP ADDMOD 0xC STOP CALLER ",
  "sha1": "fe827b27f5b77ef3425c322d05d689cfb8f79013",
  "source": "pragma solidity ^0.8.12;\n\nimport \"./Ownable.sol\";\n\nimport \"../interfaces/ERC3156FlashLenderInterface.sol\";\nimport \"../interfaces/ERC3156FlashBorrowerInterface.sol\";\nimport \"../interfaces/IJoeRouter02.sol\";\nimport \"../interfaces/IERC20.sol\";\nimport \"../interfaces/IJToken.sol\";\nimport \"../interfaces/Joetroller.sol\";\nimport \"../node_modules/hardhat/console.sol\";\n\ncontract Liquidatooor is ERC3156FlashBorrowerInterface, Ownable{\n\n    address public joetroller;\n    address public joeRouter;\n \n    constructor (address _joetroller, address _joeRouter)\n    {\n        //TJ contracts to interact with\n        joetroller = _joetroller;\n        joeRouter = _joeRouter;\n    }\n\n    struct TokenPair{\n        address jToken;\n        address underlying;\n    }\n\n    function set_joeRouter(address _joeRouter) external onlyOwner\n    {\n        joeRouter = _joeRouter;\n    }\n\n    function liquidateWithFlashLoan(\n        address flashLoanLender,\n        uint256 repayAmount,\n        address repayJToken,\n        address accountToLiquidate,\n        address collateralJToken\n    ) external {\n        TokenPair memory  repayPair = TokenPair(\n            repayJToken,\n            IJToken(repayJToken).underlying()\n            ); \n        TokenPair memory collateralPair = TokenPair(\n            collateralJToken,\n            IJToken(collateralJToken).underlying()\n            );\n        TokenPair memory flashPair = TokenPair(\n            flashLoanLender,\n            IJToken(flashLoanLender).underlying()\n            );\n        address[] memory path = new address[](2);\n        path[0] = flashPair.underlying;\n        path[1] = repayPair.underlying;\n\n        //Work out how much needed to borrow in flashloan (Borrowed token must be swapped to other tokens in order to prevent re-entrancy)\n        uint256 borrowAmount = IJoeRouter02(joeRouter).getAmountsIn(\n            repayAmount,\n            path\n            )[0];\n\n        console.log(\"need\",borrowAmount,IERC20(flashPair.underlying).symbol());\n        console.log(\"for\",repayAmount, IERC20(repayPair.underlying).symbol());\n        \n        bytes memory data = abi.encode(repayAmount, repayPair, accountToLiquidate, collateralPair);\n        ERC3156FlashLenderInterface(flashLoanLender).flashLoan(this, address(this), borrowAmount, data); //initiator address used as second argument for TJ flash loans\n        console.log(\"remaining_balance\",IERC20(flashPair.underlying).balanceOf(address(this)));\n    }\n\n    function onFlashLoan(\n        address initiator,\n        address token,\n        uint256 amount,\n        uint256 fee,\n        bytes calldata data\n    ) external returns(bytes32){\n        //console.log(\"initiator: \",initiator);\n        //console.log(\"this: \",address(this));\n        //console.log(\"msg.sender: \",msg.sender);\n        //console.log(\"token: \", token);\n\n        require(Joetroller(joetroller).isMarketListed(msg.sender), \"untrusted message sender\");\n        require(initiator == address(this), \"FlashBorrower: Untrusted loan initiator\");\n\n        address[] memory path = new address[](2);\n        uint256[] memory amounts;\n        (uint256 repayAmount, TokenPair memory repayPair, address accountToLiquidate, TokenPair memory collateralPair) = \n            abi.decode(data, (uint256,TokenPair,address,TokenPair));\n\n        IERC20(token).approve(joeRouter, amount);\n        IERC20(token).approve(msg.sender, amount + fee);\n        //IERC20(repayPair.underlying).approve(joeRouter, repayAmount);\n        IERC20(repayPair.underlying).approve(repayPair.jToken, repayAmount);\n\n        console.log(\"borrowed \",amount , IERC20(token).symbol());\n        console.log(\"to liquidate\",accountToLiquidate); \n        console.log(\"using \", IERC20(repayPair.underlying).symbol());\n        console.log(\"seizing \", IERC20(collateralPair.jToken).symbol());\n\n        path[0] = token;\n        path[1] = repayPair.underlying;\n\n        IJoeRouter02(joeRouter).swapTokensForExactTokens(\n            repayAmount,\n            amount,\n            path,    \n            address(this),\n            block.timestamp+15);\n\n        console.log(\"After swap ready to repay \", IERC20(IJToken(repayPair.jToken).underlying()).balanceOf(address(this)),IERC20(repayPair.underlying).symbol());\n\n        {\n        uint256 returnCode_liq = IJToken(repayPair.jToken).liquidateBorrow(\n            accountToLiquidate,\n            repayAmount,\n            collateralPair.jToken);\n        console.log(\"return code\",returnCode_liq);\n        console.log(\"seized_JToken\",IERC20(collateralPair.jToken).balanceOf(address(this)));\n        require(returnCode_liq == 0,\"bad return code from liquidation\");\n        }\n\n        uint256 returnCode_redeem = IJToken(collateralPair.jToken).redeem(\n            IERC20(collateralPair.jToken).balanceOf(address(this))\n            );\n        require(returnCode_redeem == 0,\"bad return code from redeem\");\n\n        uint256 seizedBalance = IERC20(collateralPair.underlying).balanceOf(address(this));\n        console.log(\"redeemed\",seizedBalance);   \n\n        path[0] = collateralPair.underlying;\n        path[1] = token;\n        amounts = IJoeRouter02(joeRouter).getAmountsOut(\n            seizedBalance,\n            path\n            ); \n        \n        for (uint i = 0; i< amounts.length; i++){\n           console.log(amounts[i]);\n        }\n        console.log(\"out\",amounts[1]*(99*10^18)/(100*10^18));\n\n        IERC20(collateralPair.underlying).approve(joeRouter,seizedBalance); \n        IJoeRouter02(joeRouter).swapExactTokensForTokens(\n            seizedBalance,\n            amounts[1]*(99*10^18)/(100*10^18),\n            path,\n            address(this),\n            block.timestamp+15);\n\n        return keccak256(\"ERC3156FlashBorrowerInterface.onFlashLoan\");\n    }\n\n}\n",
  "sourcePath": "contracts/Liquidatooor.sol",
  "type": "contract"
}